:020000040000fa
:080000000020040000000000d4
:020000040000fa
:0400080014210000bf
:020000040000fa
:04000c005621000079
:020000040000fa
:040010009621000035
:020000040000fa
:040014003421000093
:020000040000fa
:04001800762100004d
:020000040000fa
:04001c00ce220000f0
:020000040000fa
:04002000ce220000ec
:020000040000fa
:04002400ce220000e8
:020000040000fa
:04002800b022000002
:020000040000fa
:04002c00ce220000e0
:020000040000fa
:04003000ce220000dc
:020000040000fa
:040034004422000062
:020000040000fa
:04003800ce220000d4
:020000040000fa
:04003c00ce220000d0
:020000040000fa
:04004000ce220000cc
:020000040000fa
:040044007a2200001c
:020000040000fa
:04004800ce220000c4
:020000040000fa
:04004c00ce220000c0
:020000040000fa
:04005000ce220000bc
:020000040000fa
:04005400fe21000089
:020000040000fa
:04005800b6210000cd
:020000040000fa
:04005c00ce220000b0
:020000040000fa
:04006000ce220000ac
:020000040000fa
:04006400ce220000a8
:020000040000fa
:04006800ce220000a4
:020000040000fa
:04006c00ce220000a0
:020000040000fa
:04007000ce2200009c
:020000040000fa
:04007400ce22000098
:020000040000fa
:04007800ce22000094
:020000040000fa
:04007c00ce22000090
:020000040000fa
:04008000ce2200008c
:020000040000fa
:04008400ce22000088
:020000040000fa
:04008800ce22000084
:020000040000fa
:04008c00ce22000080
:020000040000fa
:04009000ce2200007c
:020000040000fa
:04009400ce22000078
:020000040000fa
:04009800ce22000074
:020000040000fa
:04009c00ce22000070
:020000040000fa
:0400a000ce2200006c
:020000040000fa
:0400a400ce22000068
:020000040000fa
:0400a800ce22000064
:020000040000fa
:0400ac00ce22000060
:020000040000fa
:0400b000ce2200005c
:020000040000fa
:0400b400ce22000058
:020000040000fa
:0400b800ce22000054
:020000040000fa
:0400bc00ce22000050
:020000040000fa
:0400c000ce2200004c
:020000040000fa
:0400c400ce22000048
:020000040000fa
:0400c800ce22000044
:020000040000fa
:0400cc00ce22000040
:020000040000fa
:0400d000ce2200003c
:020000040000fa
:0400d400ce22000038
:020000040000fa
:0400d800ce22000034
:020000040000fa
:0400dc00ce22000030
:020000040000fa
:0400e000ce2200002c
:020000040000fa
:0400e400ce22000028
:020000040000fa
:0400e800ce22000024
:020000040000fa
:0400ec00ce22000020
:020000040000fa
:0400f000ce2200001c
:020000040000fa
:0400f400ce22000018
:020000040000fa
:0400f800ce22000014
:020000040000fa
:0400fc00ce22000010
:020000040000fa
:04010000ce2200000b
:020000040000fa
:04010400ce22000007
:020000040000fa
:04010800ce22000003
:020000040000fa
:04010c00ce220000ff
:020000040000fa
:04011000ce220000fb
:020000040000fa
:04011400ce220000f7
:020000040000fa
:04011800ce220000f3
:020000040000fa
:04011c00ce220000ef
:020000040000fa
:04012000ce220000eb
:020000040000fa
:04012400ce220000e7
:020000040000fa
:04012800ce220000e3
:020000040000fa
:04012c002e2200007f
:020000040000fa
:04013000ce220000db
:020000040000fa
:04013400ce220000d7
:020000040000fa
:04013800ce220000d3
:020000040000fa
:04013c00ce220000cf
:020000040000fa
:04014000ce220000cb
:020000040000fa
:04014400ce220000c7
:020000040000fa
:04014800ce220000c3
:020000040000fa
:04014c00ce220000bf
:020000040000fa
:04015000ce220000bb
:020000040000fa
:04015400ce220000b7
:020000040000fa
:04015800ce220000b3
:020000040000fa
:04015c00ce220000af
:020000040000fa
:04016000ce220000ab
:020000040000fa
:04016400ce220000a7
:020000040000fa
:04016800ce220000a3
:020000040000fa
:04016c00ce2200009f
:020000040000fa
:04017000ce2200009b
:020000040000fa
:04017400ce22000097
:020000040000fa
:04017800ce22000093
:020000040000fa
:04017c00ce2200008f
:020000040000fa
:04018000ce2200008b
:020000040000fa
:04018400ce22000087
:020000040000fa
:04018800ce22000083
:020000040000fa
:04018c00ce2200007f
:020000040000fa
:04019000ce2200007b
:020000040000fa
:04019400ce22000077
:020000040000fa
:04019800ce22000073
:020000040000fa
:04019c00ce2200006f
:020000040000fa
:0401a000ce2200006b
:020000040000fa
:0401a400ce22000067
:020000040000fa
:0401a800ce22000063
:020000040000fa
:0401ac00ce2200005f
:020000040000fa
:0401b000ce2200005b
:020000040000fa
:0401b400ce22000057
:020000040000fa
:0401b800ce22000053
:020000040000fa
:0401bc00ce2200004f
:020000040000fa
:0401c000ce2200004b
:020000040000fa
:0401c400ce22000047
:020000040000fa
:0401c800ce22000043
:020000040000fa
:0401cc00ce2200003f
:020000040000fa
:0401d000ce2200003b
:020000040000fa
:0401d400ce22000037
:020000040000fa
:0401d800ce22000033
:020000040000fa
:0401dc00ce2200002f
:020000040000fa
:0401e000ce2200002b
:020000040000fa
:0401e400ce22000027
:020000040000fa
:0401e800ce22000023
:020000040000fa
:0401ec00ce2200001f
:020000040000fa
:0401f000ce2200001b
:020000040000fa
:0401f400ce22000017
:020000040000fa
:0401f800ce22000013
:020000040000fa
:0401fc00ce2200000f
:020000040000fa
:104000004fae20000e7f24000e018800000000004b
:10401000000020000000e00002003200000120004b
:1040200020028800140007005e0107000000e00085
:1040300003003a0000de25000100200002003700e6
:104040000000200001002000810f700001003200fc
:1040500014000700000020000000e0000200320011
:1040600000000200000000000058020000000000f4
:104070000040da000000fe004440a900c0372000e4
:104080000000e000030032000020200090018800c2
:104090004440a800000006008a1f78008b1f7800ab
:1040a00000000600a1028800800478000000eb00f8
:1040b0001f003700e284440054a0b4009905ba0000
:1040c000e284440054a0b4009906ba00e28444009b
:1040d00054a0b4000006eb00476fde00fd07b200fd
:1040e000ae018800636ce10003003a00eaff0700bc
:1040f0000000eb000e003700606ce10008003a00a1
:10410000004deb000a05e800020039003420ec0005
:104110000af0a0008b05e900f9ff3e00040037001b
:104120006168e100010032000086eb000b0007002f
:1041300019c7ba001905ba000e04e00003003a00de
:104140000a00e000dbff3a0000000600fe07b200b4
:10415000ae0288008a047800f5ff37000cd0a30077
:10416000e20f4d001c00390089027800354dba007d
:104170000a05e800020039003420ec000af0a00033
:104180008b05e9000f003200254dba000a05e80052
:10419000020039003420ec000af0a0008b05e90091
:1041a000080032000c00e0000600320015cdba0015
:1041b0000a05e800020039003420ec000af0a000f3
:1041c0008b05e9008984e80054a0b4000b00e000ee
:1041d000e2ff3a00000006009902ba00055d78008f
:1041e0008b05e900f7ff3200c82ade00055d780084
:1041f0008b05e900f3ff32000c00e000f1ff320014
:1042000019ddba00eeff3700864b04000000000005
:10421000a44b040000000000b85c04000000000093
:10422000745d0400000000003600f800809fbe00ae
:10423000829fbe00849fbe00869fbe000000fa00e1
:104240008020a9000000eb00081f07000080fa0092
:104250004f03be004f02be004f01be004f00be0024
:104260003600f900004006003600f800809fbe00ce
:10427000829fbe00849fbe00869fbe000000fa00a1
:10428000ff1e07008040a90010002000f71e070055
:104290000080fa004f03be004f02be004f01be0077
:1042a0004f00be003600f900004006003600f8005e
:1042b000809fbe00829fbe00849fbe00869fbe007e
:1042c0000000fa008060a90020002000e71e07001f
:1042d0000080fa004f03be004f02be004f01be0037
:1042e0004f00be003600f900004006003600f8001e
:1042f000809fbe00829fbe00849fbe00869fbe003e
:104300000000fa008080a90030002000d71e0700be
:104310000080fa004f03be004f02be004f01be00f6
:104320004f00be003600f900004006003600f800dd
:10433000809fbe00829fbe00849fbe00869fbe00fd
:104340000000fa008600a90070002000c71e0700c8
:104350000080fa004f03be004f02be004f01be00b6
:104360004f00be003600f900004006003600f8009d
:10437000809fbe00829fbe00849fbe00869fbe00bd
:104380000000fa009980a9008980a900a08320007c
:1043900077110700e30f500005003a002c68ef008a
:1043a000a083200078110700f01407000c003700ec
:1043b0002cc8bf000004e00005003a0010c0b300a4
:1043c0002ce8b700d0c0b300e814070004003700a1
:1043d0002c68ef0051002000a083200099110700f5
:1043e0000080fa004f03be004f02be004f01be0026
:1043f0004f00be003600f900004006003600f8000d
:10440000809fbe00829fbe00849fbe00869fbe002c
:104410000000fa00171607000004e0000200320056
:104420008414070004003700ca1407008040780095
:10443000608920008d1107008960a9009960a8009b
:104440000080fa004f03be004f02be004f01be00c5
:104450004f00be003600f90000400600801f7800c3
:104460000000fa00d01c8000620060000000e00044
:10447000010032009a23a9009020a9000080fa00d0
:104480004f007800004006003600f800809fbe0014
:10449000829fbe00849fbe00869fbe000000fa007f
:1044a000b04180000000e00002003200b041800016
:1044b0000000010010ae2000104078008040e800ad
:1044c00010ae20000148780000ae200011c0b300fb
:1044d000014878008860a9000080fa004f03be0000
:1044e0004f02be004f01be004f00be003600f90073
:1044f000004006003600f800809fbe00829fbe008c
:10450000849fbe00869fbe000000fa00c04180006c
:104510000000e00002003200c04180000000010005
:1045200030ae2000104078008040e80030ae20001f
:104530000148780020ae200011c0b3000148780087
:1045400088e0a9000080fa004f03be004f02be00c1
:104550004f01be004f00be003600f90000400600cb
:104560003600f800809fbe00829fbe00849fbe0080
:10457000869fbe000000fa00481e07008800a900c0
:104580000080fa004f03be004f02be004f01be0084
:104590004f00be003600f900004006000040da007f
:1045a0000000fe00000005006022b80006022000a6
:1045b0000000d0008180d2000482d2008582d20027
:1045c0000000a0000202520083825a000300310062
:1045d0000202420083824a000000a1000603e900b3
:1045e000f3ff3a0000000600efff07000400be00e2
:0445f00000000600c1
:020000040000fa
:1045f4002424000024240000003d0000004f00009b
:104604004e0000004f4600004600000057520000d4
:104614004954000045000000524500005345000085
:1046240054000000474500005420000000530000df
:104634004554000020000000454e00005445000091
:10464400525f000044410000544100005f4d0000ef
:104654004f44000045000000424100005454000053
:1046640045520000595f00005354000041540000bb
:10467400555300000042000041540000545f000004
:10468400434f00004e460000494700003d4f0000e4
:104694004e20000031340000352000003431000089
:1046a400353000002031000035300000302000009b
:1046b4003135000030000000444500004550000042
:1046c4005f5300004c4500004550000000450000c9
:1046d4004e410000424c0000455f00004c45000084
:1046e400440000004e4100004d4500003d410000e3
:1046f400494800004553000052430000325f000067
:10470400314200003830000035350000005300000d
:10471400544100005455000053000000535400005d
:10472400415400004520000000540000585f000080
:10473400504f000057450000523d00003420000057
:1047440038000000425400005f5300005441000050
:10475400544500005f4300004f4e000046490000ee
:10476400473d0000302000003000000042540000ab
:104774005f53000054410000544500005f430000b3
:104784004f4e000046490000473d00003120000024
:104794003200000041550000444900004f3d000034
:1047a4003020000030000000415500004449000062
:1047b4004f5f0000414e0000414c00004f47000095
:1047c4003d3600002031000035200000322000007a
:1047d4004f4e000000430000414c00004c0000001c
:1047e400434c00004f5300004500000052450000b8
:1047f400535400004f52000045000000504f000089
:104804005745000052000000454e000041420000a0
:104814004c4500005f42000041540000545f00001a
:10482400494e00004400000041550000544f000070
:10483400434f00004e4e00003d3100000043000095
:104844004f4400003d320000383000003931000090
:1048540038000000434f000044450000433d000081
:10486400332000004f460000460000004d41000088
:10487400585f000052450000433d00003300000033
:10488400505200004f460000494c000045530000c0
:104894003d310000203000002031000020300000b5
:1048a40020300000203100002031000020300000c2
:1048b40020300000203000002030000020300000b4
:1048c4000056000052450000475f0000524f0000b0
:1048d4004c4500003d3100000048000046500000f7
:1048e4005f4300004f4e000046490000473d000072
:1048f4004f460000462000004f4e0000204f0000ad
:1049040046460000204f000046460000204f0000ad
:104914004e2000004f4600004600000041540000b5
:104924002031000033200000415400002b490000d6
:10493400504800004f4e0000454100004343000032
:10494400455600003d3100002c3100002c300000a1
:1049540000410000542000003133000020410000d9
:10496400542b000049500000484f00004e45000001
:104974004143000043450000563d0000312c000037
:10498400312c0000310000004154000020310000af
:1049940033200000415400002b490000504800001f
:1049a4004f4e0000454100004343000045560000bf
:1049b4003d3100002c3100002c3200000041000089
:1049c400542000003133000020410000542b00002b
:1049d40049500000484f00004e450000414300008c
:1049e40043450000563d0000312c0000312c0000ee
:1049f4003300000041540000203100003320000047
:104a0400415400002b490000504800004f4e000064
:104a14004541000043430000455600003d3100007d
:104a24002c3100002c340000004100005420000010
:104a34003133000020410000542b00004950000095
:104a4400484f00004e45000041430000434500002c
:104a5400563d0000312c0000312c000035000000d0
:104a64004154000020310000332000004154000074
:104a74002b490000504800004f4e00004541000003
:104a840043430000455600003d3100002c31000036
:104a94002c36000000410000542000003133000097
:104aa40020410000542b000049500000484f0000f2
:104ab4004e4500004143000043450000563d0000c0
:104ac400312c0000312c000037000000415400005c
:104ad4002031000033200000415400002b49000025
:104ae400504800004f4e0000454100004343000081
:104af400455600003d3100002c3100002c380000e8
:104b04000041000054200000313300002041000027
:104b1400542b000049500000484f00004e4500004f
:104b24004143000043450000563d0000312c000085
:104b3400312c000039000000565200005f310000a3
:104b4400302e0000314500004e410000424c000070
:104b5400455f000042410000545400005f490000da
:104b64004e4400003d4f00004e00000020000000b5
:104b74000d0a0000003f0000004600004153000001
:104b8400545f0000434800004152000047450000c4
:104b9400004e00004f5f0000504f000057450000da
:104ba400520000004449000053410000424c000000
:104bb4004544000000530000544100004e440000ee
:104bc400425900000054000052490000434b0000c9
:104bd4004c4500005f43000048410000524700007c
:104be40045000000434800004152000047450000d2
:104bf4005f4900004e5f0000505200004f47000024
:104c04005245000053530000004300004841000097
:104c140052470000455f0000434f00004d50000024
:104c24004c45000054450000004f00004b000000bc
:104c340045520000524f000052000000526500002f
:104c4400616400007900000041320000445000001b
:104c54005f53000054520000454100004d5f0000c6
:104c6400535400004152000054000000434c000023
:104c74004f530000455f00004f4b000000520000fe
:104c84004f4c0000455f00004f4b00000041000006
:104c940056520000435000005f5000004c41000099
:104ca400590000004156000052430000505f0000cc
:104cb40050410000555300004500000053430000dc
:104cc4004f5f00004f500000454e000000530000ad
:104cd400434f00005f4300004c4f00005345000069
:084ce4000020000000000000a8
:020000040000fa
:104cec000000fa00440f07000080fa0000000600e4
:104cfc000000fa00440f07000080fa0000000600d4
:104d0c000400fa00000f78000e80e800010878001b
:104d1c001cc8bf000004e000e8003a000e80e80068
:104d2c0010007800390507000e80e80010007800ac
:104d3c00060c0700f15180000e80e800100078008e
:104d4c0042c0b3008d0407001e0078008000eb0009
:104d5c003201200003002000820f5000838f580086
:104d6c00c9003e0000600100130037001800370036
:104d7c001d00370022003700270037002c003700b9
:104d8c0031003700400037004f0037005e0037001d
:104d9c006d0037007c0037008b0037009000370027
:104dac0095003700b2003700990037009e0037009d
:104dbc00a3003700a8003700515280000e80e80095
:104dcc001000780042c1b3006c040700af0037003c
:104ddc00215280000e80e8001000780002c2b3005f
:104dec0066040700a9003700915280000e80e8008d
:104dfc001000780032c1b30060040700a300370034
:104e0c00a15280000e80e8001000780032c1b3007f
:104e1c005a0407009d003700b15280000e80e80054
:104e2c001000780092c0b3005404070097003700bc
:104e3c00c15280000e80e8001000780062c1b300ff
:104e4c004e04070091003700315280000e80e800bc
:104e5c0010007800a2c0b3004804070091518000f4
:104e6c000e80e8001000780012c0b3004304070065
:104e7c00a15180000e80e8001000780022c0b30021
:104e8c003e04070081003700315280000e80e8009c
:104e9c0010007800a2c0b3003804070091518000c4
:104eac000e80e8001000780012c0b3003304070035
:104ebc00b15180000e80e8001000780032c0b300c1
:104ecc002e04070071003700415280000e80e8006c
:104edc0010007800a2c0b300280407009151800094
:104eec000e80e8001000780012c0b3002304070005
:104efc00a15180000e80e8001000780022c0b300a1
:104f0c001e04070061003700415280000e80e8004b
:104f1c0010007800a2c0b300180407009151800063
:104f2c000e80e8001000780012c0b30013040700d4
:104f3c00b15180000e80e8001000780032c0b30040
:104f4c000e04070051003700115380000e80e8005a
:104f5c0010007800f2c0b3000804070091518000e3
:104f6c000e80e8001000780012c0b30003040700a4
:104f7c00a15180000e80e8001000780022c0b30020
:104f8c00fe03070041003700115380000e80e8003b
:104f9c0010007800f2c0b300f803070091518000b4
:104fac000e80e8001000780012c0b300f303070075
:104fbc00b15180000e80e8001000780032c0b300c0
:104fcc00ee03070031003700215380000e80e8000b
:104fdc0010007800a2c0b300e80307002b003700d4
:104fec00315380000e80e80010007800a2c0b3009e
:104ffc00e203070025003700415380000e80e800d3
:10500c0010007800b2c0b300dc0307001f003700ab
:10501c00515380000e80e8001000780092c0b3005d
:10502c00d603070019003700615380000e80e8009a
:10503c001000780002c2b300d00307001300370041
:10504c00715380000e80e80010007800b2c0b300ed
:10505c00ca0307000d003700815380000e80e80062
:10506c001000780002c2b300c40307000700370029
:10507c00415480000e80e8001000780022c1b3007b
:10508c00be03070001003700000000000e80e8009e
:10509c0010007800460b07000e80e8001000780026
:1050ac00110020008005b0000108780010c0b3008a
:1050bc001ce8b70010c0b300e20b07000e80e8003c
:1050cc00100078008c040700e10f50000300320040
:1050dc00e30f50000900320004003700e10b070019
:1050ec001c68ef001000200005003700dd0b0700e6
:1050fc001c68ef0020002000010037003000200069
:10510c000080fa00000006000400fa00000f78008e
:10511c000e80e800010878001bc8bf000004e00006
:10512c007d003a000e80e80010007800370407007c
:10513c000e80e80010007800040b0700e15180009d
:10514c000e80e8001000780042c0b3008b0307000b
:10515c001e007800e30f500031003200e30f5000c6
:10516c0005003e00e10f500017003200e10f500027
:10517c0020003e0009003700e50f50003e003200d1
:10518c00e50f500031003900e60f500045003200a9
:10519c00e70f50004e00320058003700515280008b
:1051ac000e80e8001000780042c0b30073030700c3
:1051bc000e80e80010007800610020008005b0002f
:1051cc00010878004d003700215280000e80e80065
:1051dc0010007800c2c0b300680307000e80e8001e
:1051ec0010007800510020008005b0000108780004
:1051fc0042003700915280000e80e80010007800c9
:10520c0002c1b3005d0307000e80e80010007800b7
:10521c00710020008005b0000108780037003700cd
:10522c00b15280000e80e8001000780062c0b3001c
:10523c00520307000e80e800100078009100200057
:10524c008005b000010878002c003700c1528000a6
:10525c000e80e80010007800d2c0b30047030700ae
:10526c000e80e80010007800a10020008005b0003e
:10527c000108780021003700315280000e80e800d0
:10528c0010007800a2c0b3003c0307000e80e800b9
:10529c0010007800b10020008005b00001087800f3
:1052ac0016003700415280000e80e8001000780094
:1052bc00a2c0b300310307000e80e8001000780094
:1052cc00810020008005b000010878000b00370039
:1052dc00115380000e80e80010007800f2c0b3007b
:1052ec00260307000e80e80010007800c1002000a3
:1052fc008005b00001087800000000000e80e80076
:10530c0010007800aa0a070010c0b3001be8b70011
:10531c0010c0b3004b0b07000e80e80010007800a3
:10532c00f5030700e10f500003003200e30f5000bb
:10533c0009003200040037004a0b07001b68ef001d
:10534c001000200005003700460b07001b68ef001b
:10535c002000200001003700300020000080fa00ff
:10536c00000006000200fa00000f78001ac8bf0007
:10537c000004e00012003a001e007800a3030700ae
:10538c001e007800710a0700815280001e00780010
:10539c00c2c0b300f90207001e007800840a07009f
:1053ac001e007800110020008005b0000108780074
:1053bc0010c0b3001ae8b70010c0b300210b0700ef
:1053cc001e007800cc030700e10f500003003200f0
:1053dc00e30f50000900320004003700210b0700d6
:1053ec001a68ef0010002000050037001d0b0700a5
:1053fc001a68ef0020002000010037003000200068
:10540c000080fa00000006000200fa00000f78008d
:10541c0019c8bf000004e00012003a001e0078001a
:10542c007a0307001e007800480a0700115280001a
:10543c001e007800e2c0b300d00207001e00780006
:10544c005b0a07001e007800410020008005b000b8
:10545c000108780010c0b30019e8b70010c0b30001
:10546c00f80a07001e007800a3030700e10f5000a4
:10547c0003003200e30f5000090032000400370033
:10548c00f80a07001968ef0010002000050037002b
:10549c00f40a07001968ef00200020000100370013
:1054ac00300020000080fa00000006000200fa0024
:1054bc00000f780018c8bf000004e00012003a008a
:1054cc001e007800510307001e0078001f0a070019
:1054dc00615280001e00780062c0b300a702070072
:1054ec001e007800320a07001e00780031002000f0
:1054fc008005b0000108780010c0b30018e8b700b0
:10550c0010c0b300cf0a07001e0078007a03070012
:10551c00e10f500003003200e30f5000090032008d
:10552c0004003700cf0a07001868ef0010002000b5
:10553c0005003700cb0a07001868ef002000200098
:10554c0001003700300020000080fa000000060047
:10555c000200fa00000f780017c8bf000004e0003a
:10556c0012003a001e007800280307001e00780085
:10557c00f6090700c15180001e00780052c0b3002c
:10558c007e0207001e007800090a07001e00780042
:10559c00110020008005b0000108780010c0b30095
:1055ac0017e8b70010c0b300a60a07001e00780069
:1055bc0051030700e10f500003003200e30f5000cd
:1055cc000900320004003700a60a07001768ef0034
:1055dc001000200005003700a20a07001768ef0032
:1055ec002000200001003700300020000080fa006d
:1055fc00000006000400fa00000f78000e80e8009e
:10560c000108780016c8bf000004e0002a003a0028
:10561c000e80e80010007800fc0207000e80e80005
:10562c0010007800c9090700015380000e80e800c3
:10563c001000780052c0b300500207005154800093
:10564c000e80e8001000780012c0b3004b02070077
:10565c001e007800e20f500006003a00b1518000a5
:10566c000e80e8001000780032c0b300430207003f
:10567c0005003700a15180000e80e8001000780072
:10568c0022c0b3003d0207000e80e8001000780035
:10569c00c70907000e80e8001000780011002000f8
:1056ac008005b0000108780010c0b30016e8b70000
:1056bc0010c0b300630a07000e80e80010007800e9
:1056cc000d030700e10f500003003200e30f500000
:1056dc000900320004003700620a07001668ef0068
:1056ec0010002000050037005e0a07001668ef0066
:1056fc002000200001003700300020000080fa005c
:10570c00000006000200fa00000f780015c8bf0068
:10571c000004e00012003a001e007800bb020700f3
:10572c001e00780089090700d15180001e00780006
:10573c0052c0b300110207001e0078009c0907003c
:10574c001e007800210020008005b00001087800c0
:10575c0010c0b30015e8b70010c0b300390a070039
:10576c001e007800e4020700e10f50000300320035
:10577c00e30f50000900320004003700390a07001b
:10578c001568ef001000200005003700350a0700ef
:10579c001568ef00200020000100370030002000c9
:1057ac000080fa00000006000200fa00000f7800ea
:1057bc0014c8bf000004e00012003a001e0078007c
:1057cc00920207001e0078006009070091538000c8
:1057dc001e007800a2c1b300e80107001e0078008b
:1057ec00730907001e007800210020008005b0001e
:1057fc000108780010c0b30014e8b70010c0b30063
:10580c00100a07001e007800bb020700e10f5000d1
:10581c0003003200e30f500009003200040037008f
:10582c00100a07001468ef00100020000500370074
:10583c000c0a07001468ef0020002000010037005c
:10584c00300020000080fa00000006000200fa0080
:10585c00000f780013c8bf000004e00012003a00eb
:10586c001e007800690207001e0078003709070047
:10587c00a15380001e007800a2c1b300bf01070035
:10588c001e0078004a0907001e0078002100200045
:10589c008005b0000108780010c0b30013e8b70011
:1058ac0010c0b300e70907001e0078009202070041
:1058bc00e10f500003003200e30f500009003200ea
:1058cc0004003700e70907001368ef001000200000
:1058dc0005003700e30907001368ef0020002000e3
:1058ec0001003700300020000080fa0000000600a4
:1058fc000200fa00000f780012c8bf000004e0009c
:10590c0012003a001e007800400207001e007800ca
:10591c000e090700b15380001e007800a2c1b3002d
:10592c00960107001e007800210907001e00780070
:10593c00210020008005b0000108780010c0b300e1
:10594c0012e8b70010c0b300be0907001e007800b3
:10595c0069020700e10f500003003200e30f500012
:10596c000900320004003700be0907001268ef007e
:10597c001000200005003700ba0907001268ef007c
:10598c002000200001003700300020000080fa00c9
:10599c00000006000200fa00000f780011c8bf00da
:1059ac000004e00012003a001e0078001702070005
:1059bc001e007800e5080700c15380001e00780027
:1059cc00a2c1b3006d0107001e007800f8080700a3
:1059dc001e007800210020008005b000010878002e
:1059ec0010c0b30011e8b70010c0b3009509070050
:1059fc001e00780040020700e10f50000300320047
:105a0c00e30f50000900320004003700950907002d
:105a1c001168ef0010002000050037009109070005
:105a2c001168ef002000200001003700300020003a
:105a3c000080fa00000006000200fa00000f780057
:105a4c0010c8bf000004e00012003a001e007800ed
:105a5c00ee0107001e007800bc080700d15380003f
:105a6c001e007800a2c1b300440107001e0078009c
:105a7c00cf0807001e007800210020008005b00030
:105a8c000108780010c0b30010e8b70010c0b300d4
:105a9c006c0907001e00780017020700e10f500088
:105aac0003003200e30f50000900320004003700fd
:105abc006c0907001068ef0010002000050037008b
:105acc00680907001068ef00200020000100370073
:105adc00300020000080fa00000006000200fa00ee
:105aec00000f78000fc8bf000004e00012003a005d
:105afc001e007800c50107001e00780093080700ff
:105b0c00e15380001e007800a2c1b3001b01070006
:105b1c001e007800a60807001e0078002100200057
:105b2c008005b0000108780010c0b3000fe8b70082
:105b3c0010c0b300430907001e007800ee010700f7
:105b4c00e10f500003003200e30f50000900320057
:105b5c0004003700430907000f68ef001000200015
:105b6c00050037003f0907000f68ef0020002000f8
:105b7c0001003700300020000080fa000000060011
:105b8c000200fa00000f78000ec8bf000004e0000d
:105b9c0012003a001e0078009c0107001e007800dd
:105bac006a080700f15380001e007800a2c1b30000
:105bbc00f20007001e0078007d0807001e00780028
:105bcc00210020008005b0000108780010c0b3004f
:105bdc000ee8b70010c0b3001a0907001e007800c9
:105bec00c5010700e10f500003003200e30f500025
:105bfc0009003200040037001a0907000e68ef0094
:105c0c001000200005003700160907000e68ef0091
:105c1c002000200001003700300020000080fa0036
:105c2c00000006000200fa00000f78000dc8bf004b
:105c3c000004e00012003a001e0078007301070017
:105c4c001e00780041080700015480001e007800f7
:105c5c00a2c1b300c90007001e0078005408070059
:105c6c001e007800210020008005b000010878009b
:105c7c0010c0b3000de8b70010c0b300f108070066
:105c8c001e0078009c010700e10f50000300320059
:105c9c00e30f50000900320004003700f108070040
:105cac000d68ef001000200005003700ed0807001c
:105cbc000d68ef00200020000100370030002000ac
:105ccc000080fa00000006000200fa00000f7800c5
:105cdc000cc8bf000004e00012003a001e0078005f
:105cec004a0107001e0078001808070011548000b4
:105cfc001e007800a2c1b300a00007001e007800af
:105d0c002b0807001e007800210020008005b00041
:105d1c000108780010c0b3000ce8b70010c0b30045
:105d2c00c80807001e00780073010700e10f50003f
:105d3c0003003200e30f500009003200040037006a
:105d4c00c80807000c68ef001000200005003700a1
:105d5c00c40807000c68ef00200020000100370089
:105d6c00300020000080fa00000006000200fa005b
:105d7c00000f78000bc8bf000004e00012003a00ce
:105d8c001e007800210107001e007800ef070700b5
:105d9c00215480001e007800a2c1b30077000700d8
:105dac001e007800020807001e0078002100200069
:105dbc008005b0000108780010c0b3000be8b700f4
:105dcc0010c0b3009f0807001e0078004a010700ae
:105ddc00e10f500003003200e30f500009003200c5
:105dec00040037009f0807000b68ef00100020002c
:105dfc00050037009b0807000b68ef00200020000f
:105e0c0001003700300020000080fa00000006007e
:105e1c000200fa00000f78000ac8bf000004e0007e
:105e2c0012003a001e007800f80007001e007800ef
:105e3c00c6070700315480001e00780072c0b30002
:105e4c004e0007001e007800d90707001e007800de
:105e5c00210020008005b0000108780010c0b300bc
:105e6c000ae8b70010c0b300760807001e007800df
:105e7c0021010700e10f500003003200e30f500036
:105e8c000900320004003700760807000a68ef00aa
:105e9c001000200005003700720807000a68ef00a8
:105eac002000200001003700300020000080fa00a4
:105ebc00000006000200fa00000f780009c8bf00bd
:105ecc000004e00012003a001e007800cf0007002a
:105edc001e0078009d070700f15280001e0078001c
:105eec0072c0b300250007001e007800b007070041
:105efc001e007800210020008005b0000108780009
:105f0c0010c0b30009e8b70010c0b3004d0807007b
:105f1c001e007800f8000700e10f5000030032006b
:105f2c00e30f500009003200040037004d08070051
:105f3c000968ef0010002000050037004908070031
:105f4c000968ef002000200001003700300020001d
:105f5c000080fa00000006000200fa00000f780032
:105f6c001e007800a9000700c10520001e8040001b
:105f7c00e20107000080fa00000006000800fa00a9
:105f8c008e81e800800978006400470001087800e1
:105f9c0066004700024878000040eb00004f780094
:105fac000e80e80010007800a005b000100078000a
:105fbc00e10f500032003a000e80e800100078002b
:105fcc0021002000a005b000010878000040eb0083
:105fdc00004f7800110037009e80fb000e80e80017
:105fec00100078000005b000104078000000fb00a5
:105ffc00008040009e80fb00640147001201780085
:10600c0081004100914078000e81e8001201780077
:10601c0000004100014878001e4fe8006600470070
:10602c00104078009e40780080cf5000eaff390085
:10603c000e80e800100078000005b00010407800d9
:10604c0080407800660047001040780000c0400097
:10605c00804078000e80e800100078000005b00049
:10606c00014878000e80e800100078001100200034
:10607c00a005b000010878001000200001003700d6
:10608c00200020000080fa00000006000400fa0046
:10609c008e80e8008008780010002000000f780047
:1060ac000e80e800100078001005b0001040780059
:1060bc008040e8000e80e800100078001005b00069
:1060cc00014878000e80e800100078001005b00040
:1060dc0010407800f14f500002003a0030002000d0
:1060ec00000f78000e80e800100078001005b0005a
:1060fc00904078000e80e800100078000005b00099
:10610c001040780080cf500002003d00300020008d
:10611c000d0037000e80e800100078001005b0006c
:10612c00904078000e80e800100078000005b00068
:10613c001040780080cf500002003a001000200080
:10614c0001003700200020000080fa00000006004b
:10615c000200fa00000f78001e0078001005b00055
:10616c00104078000000fb009e007800008040008a
:10617c00104078000080fa00000006000200fa00cf
:10618c00000f78001e0078006005b0001000780049
:10619c000080fa00000006000400fa00000f7800ee
:1061ac000e80e800010878001e0078006005b00041
:1061bc008e80e80011087800100020000080fa00a2
:1061cc00000006000400fa00000f78000e80e800c2
:1061dc00010878001e0078004005b0008e80e800b1
:1061ec0011087800100020000080fa000000060062
:1061fc000200fa00000f78001e0078000300070070
:10620c001e0078000080fa00000006000400fa006e
:10621c008e80e800800878000e80e800100078007e
:10622c0021002000a005b000010878000e80e800d5
:10623c00100078008040eb000005b00001487800a9
:10624c000040eb00004f7800070037001e80fb0079
:10625c008e80e800110178008040eb0000004100c6
:10626c00014878001e4fe800f0c4b3009e4078004f
:10627c0080cf5000f5ff36000e80e800100078004b
:10628c008040eb001005b000014878000e80e8005b
:10629c0010007800110020002005b00001087800e3
:1062ac000e80e80010007800110020004005b000be
:1062bc00010878000e80e800100078008000eb00e8
:1062cc008005b000010878000e80e800100078000e
:1062dc00110020006005b000010878000e80e80075
:1062ec001000780011002000a005b0000108780013
:1062fc000080fa00000006000200fa00000f78008f
:10630c0008c8bf000080fb000000e0000300320062
:10631c00e10f5000230032003c0037005f070700fc
:10632c000004e0001c003a001e0078003b0007004f
:10633c00e10f500003003200e30f50001400320054
:10634c000f00370008c8bf000040e80008e8b7009d
:10635c001e007800601bb00010007800e20f5000a7
:10636c0003003a0050c0b3003607070002003700a4
:10637c0010c0b300330707003000200025003700a1
:10638c00380707000868ef002000200021003700c4
:10639c00300020001f0037000868ef0020002000ac
:1063ac001c0037003d0707000004e00012003a0013
:1063bc001e00780050000700e10f5000030032006f
:1063cc00e30f50000a003200040037000868ef00a9
:1063dc0024070700100020000e0037000868ef00ab
:1063ec001e007800b50007002000200009003700cf
:1063fc0030002000070037000868ef001e0078000e
:10640c00ae00070020002000020037000868ef00f3
:10641c00200020000080fa00000006000200fa00b4
:10642c00000f78001e0078006005b00010007800a6
:10643c00e30f50002d003a001e0078004005b0001c
:10644c0010007800e40f500022003200e50f5000dd
:10645c0022003200e30f500022003a001e007800a8
:10646c001005b000104078000004e00017003a005e
:10647c002d0907000004e000140032001e00780013
:10648c008005b000900078001e007800601bb00002
:10649c00010878001e007800410020004005b00083
:1064ac00010878001e007800310020002005b000a3
:1064bc0001087800200907001e00780010407800c1
:1064cc0022090700300020000900370020002000be
:1064dc0007003700300020000500370010002000b6
:1064ec0003003700200020000100370020002000ae
:1064fc000080fa00000006000200fa00000f78008d
:10650c00c10520001e8040009e0078002b00070073
:10651c00e10f500005003a00c10520001e8040002c
:10652c00760007001000200022003700210b20000d
:10653c001e8040009e00780020000700e10f5000f4
:10654c0005003a00c10520001e8040006b000700ca
:10655c001000200017003700811020001e80400022
:10656c009e00780015000700e10f500005003a006e
:10657c00c10520001e8040006000070010002000b4
:10658c000c003700e11520001e8040009e007800b2
:10659c000a000700e10f500005003a00c105200079
:1065ac001e8040005500070010002000010037003d
:1065bc00300020000080fa00000006000400fa0001
:1065cc00000f78000e80e800010878000e80e800cb
:1065dc00100078008005b00010007800e40f500027
:1065ec001f003200e40f500007003e00e20f500085
:1065fc0011003200e20f500014003e00e10f500079
:10660c00080032002a003700e60f50001e0032004e
:10661c00e60f500017003900e70f50001f00320042
:10662c0023003700f0548000800078001e007800b2
:10663c00f10107001f003700205580008000780012
:10664c001e007800ec0107001a0037000e80e800ed
:10665c00900078001e007800130207001500370028
:10666c000e80e800900078001e007800a40207005d
:10667c00100037000e80e800900078001e007800b3
:10668c00a30307000b0037000e80e8009000780091
:10669c001e0078008c040700060037000e80e8000e
:1066ac00900078001e0078004c04070001003700b1
:1066bc00200020000080fa00000006000200fa0012
:1066cc00000f7800670607001e0078008000eb00c2
:1066dc008005b000010878000080fa000000060078
:1066ec000200fa00000f78001e007800030007007b
:1066fc001e0078000080fa00000006000200fa007c
:10670c00000f78001e00780021002000c015b0009a
:10671c00010878001e0078008040eb008015b00066
:10672c00014878001e0078002d000700610520004c
:10673c001e8040002a000700c10a20001e80400075
:10674c0027000700211020001e80400024000700b5
:10675c001e0078008000eb00a015b0000108780046
:10676c001e00780011002000c015b0000108780050
:10677c001e00780011002000c015b0000108780040
:10678c000080fa00000006000600fa000e81e80006
:10679c000009780064004700014878000040eb00d5
:1067ac00004f7800070037001e80fb008e80e80049
:1067bc0091007800008040008040eb000148780098
:1067cc001e4fe80064004700104078009e4078009f
:1067dc0080cf5000f4ff39000080fa000000060062
:1067ec000200fa00000f78001e0078002100200043
:1067fc004005b000010878001e0078001100200050
:10680c002005b000010878001e0078008040eb00e5
:10681c000005b000014878001e00780001c5b300e7
:10682c00d9ff07001e007800110020004005b000c1
:10683c00010878000080fa00000006000200fa004f
:10684c00000f78001e007800a015b0001000780032
:10685c000080fa00000006000200fa00000f780029
:10686c001e0078008000eb00a015b0000108780035
:10687c000080fa00000006000400fa00000f780007
:10688c000e80e800014878000e80e8001040780087
:10689c000080fb00e10f50000e003200e10f5000b1
:1068ac0003003c000000e000060032001500370039
:1068bc00e20f50000b003200e30f50000d003200cd
:1068cc00100037001e0078002005b0001000780082
:1068dc000d0037001e007800800ab0001000780010
:1068ec00090037001e007800e00fb000100078009f
:1068fc00050037001e0078004015b000100078002d
:10690c00010037000000eb000080fa0000000600d8
:10691c000400fa00000f78000e80e80001487800af
:10692c000e80e800104078000080fb00e10f500062
:10693c000e003200e10f500003003c000000e000ac
:10694c000600320015003700e20f50000b00320039
:10695c00e30f50000d003200100037001e007800cd
:10696c004005b000100078000d0037001e007800c4
:10697c00a00ab00010007800090037001e00780053
:10698c000010b00010007800050037001e007800e1
:10699c006015b00010007800010037000000eb001b
:1069ac000080fa00000006000600fa000e81e800e4
:1069bc000009780064004700014878000000eb00f3
:1069cc00000f78000e80e800100078008015b000f1
:1069dc00104078000000fb00e20f50001300320062
:1069ec00e30f500019003200e10f50000700320095
:1069fc000e80e80010007800e40047009140780019
:106a0c0057000700000f7800180037000e80e800d0
:106a1c00100078006005b000e40047009140780059
:106a2c004f000700000f7800100037000e80e800c0
:106a3c0010007800c00ab000e400470091407800d4
:106a4c0047000700000f7800080037000e80e800b0
:106a5c00100078002010b000e4004700914078004e
:106a6c003f000700000f7800000000001e007800b7
:106a7c00e70f500038003a000e80e8001000780054
:106a8c008015b000104078008040e8000e80e800cf
:106a9c00100078008015b000014878000e80e800e6
:106aac00100078008015b00010407800e34f5000c3
:106abc00050034000e80e800100078008040eb00e8
:106acc008015b000014878000e80e80010007800b6
:106adc008015b000104078000000fb00e10f500062
:106aec000e003200e10f500003003c000000e000fb
:106afc000600320018003700e20f50000c00320084
:106b0c00e30f50000f003200130037000e80e80036
:106b1c001000780032ff07000f0037000e80e800ed
:106b2c00100078006005b0002dff07000a00370048
:106b3c000e80e80010007800c00ab00028ff0700a3
:106b4c00050037000e80e800100078002010b0001f
:106b5c0023ff0700000000000080fa000000060080
:106b6c000400fa00000f78000e80e800014878005d
:106b7c001e0078002005b00010007800e60f5000d1
:106b8c00050032001e0078002005b00010007800cf
:106b9c00e10f500033003a000e80e800904078007e
:106bac00a0c7b30080cf50002e003e000e80e8003e
:106bbc0010407800ed4f50000e003a001e00780097
:106bcc000005b000104078000004e0002500320001
:106bdc001e007800710020002005b000010878002c
:106bec001e007800110020004005b000010878005c
:106bfc001c0037001e0078000005b0001040780023
:106c0c000000fb008e80e800914078001e017800a7
:106c1c0000004100014878001e007800610020004f
:106c2c002005b000010878001e0078000005b000b7
:106c3c00104078008040e8001e0078000005b0008d
:106c4c00014878001e0078000005b00090407800e4
:106c5c00f0c4b30080cf5000020034001e00780056
:106c6c00dffe07001e0078002005b0001000780041
:106c7c000080fa00000006000200fa00000f780005
:106c8c001e0078002005b00010007800e70f5000bf
:106c9c000e003a001e0078004005b000100078008d
:106cac00e10f500009003a001e007800210020007e
:106cbc004005b000010878001e0078009e007800a6
:106ccc00430007001e007800c5fe07001e00780078
:106cdc00800ab00010007800e70f500010003a0056
:106cec001e007800a00ab00010007800e10f5000e0
:106cfc000b003a001e00780021002000a00ab00012
:106d0c0001087800610520001e8040009e0078007c
:106d1c002f000700610520001e804000b0fe070018
:106d2c001e007800e00fb00010007800e70f500054
:106d3c0010003a001e0078000010b000100078001f
:106d4c00e10f50000b003a001e00780021002000db
:106d5c000010b00001087800c10a20001e8040001d
:106d6c009e0078001a000700c10a20001e80400017
:106d7c009bfe07001e0078004015b0001000780044
:106d8c00e70f500010003a001e0078006015b000ac
:106d9c0010007800e10f50000b003a001e00780044
:106dac00210020006015b00001087800211020009f
:106dbc001e8040009e007800050007002110200076
:106dcc001e80400086fe07000080fa0000000600ce
:106ddc000600fa000e81e800000978006400470004
:106dec000108780010002000000f78001e007800c9
:106dfc000080fa00000006000600fa000e81e80090
:106e0c000009780064004700010878003000200079
:106e1c00000f78000e80e800100078002005b0000c
:106e2c0010007800e70f50001c003a000e80e800bc
:106e3c00100078004005b00010007800e20f500000
:106e4c00160032000e80e8001000780021002000af
:106e5c004005b000010878000e80e80010007800b2
:106e6c000005b00010407800804178000041eb0034
:106e7c0064004700900078000e80e8001000780055
:106e8c00b8020700000f78000e80e80010007800b0
:106e9c00110020004005b000010878001e007800a9
:106eac000080fa00000006000800fa0064014700a8
:106ebc0000097800660047000108780030002000c7
:106ecc00000f780001c1b3000e80e8000148780083
:106edc0064004700100078002005b0001000780016
:106eec00e70f500083003a00640047001000780060
:106efc004005b00010007800e20f50007d00320019
:106f0c006400470010007800210020004005b0000c
:106f1c00010878007052800063c0b3000041eb00a0
:106f2c008000780064004700100078008d02070094
:106f3c00000f78001e007800e10f500068003a0046
:106f4c00b051800033c0b30062c0b3008000780041
:106f5c00640047001000780082020700e10f500027
:106f6c0015003a0066004700100078008000eb0026
:106f7c00e01cb000010878006600470010007800a3
:106f8c008000eb00001db00001087800660047008f
:106f9c00100078008000eb00201db0000108780084
:106fac0066004700100078008000eb00401db00028
:106fbc00010878004a00370066004700100078008e
:106fcc0011002000e01cb000010878000e80e800e1
:106fdc00104078000080fb00e4004700910078002e
:106fec0000804000104078000000fb000003b1005e
:106ffc00800078006600470010007800001db0008b
:10700c00010878000e80e80010407800ef40400046
:10701c000e80e80001487800a051800023c0b30026
:10702c008e80e800114178008000780064004700f1
:10703c00100078004b020700e10f50000b003a00e3
:10704c0066004700100078008000eb00201db000a7
:10705c00010878000e80e80010407800f1404000f4
:10706c000e80e800014878000800370066004700f1
:10707c001000780011002000201db00001087800dd
:10708c0021c1b3000e80e80001487800a0518000b7
:10709c0023c0b3008e80e800114178008000780096
:1070ac0064004700100078002e020700e10f50002a
:1070bc0006003a0066004700100078008000eb00e4
:1070cc00401db0000108780005003700660047003d
:1070dc001000780011002000401db000010878005d
:1070ec006400470010007800110020004005b0003b
:1070fc00010878001e0078000080fa0000000600ed
:10710c000800fa0064014700000978006600470097
:10711c000108780030002000000f78008040eb0060
:10712c000e80e800014878006400470010007800e9
:10713c002005b00010007800e70f5000f1003a0075
:10714c0064004700100078004005b0001000780083
:10715c00e20f5000eb003200640047001000780092
:10716c00210020004005b00001087800100020002c
:10717c00000f780010528000e3c0b3000041eb0018
:10718c00800078006400470010007800f5010700cb
:10719c00e10f5000d4003a00660047001000780060
:1071ac00c11b200080804000640047001000780064
:1071bc000005b00010407800644050008101780058
:1071cc0042c0b30080407800640047001000780093
:1071dc0039020700e10f5000c0003a00640047007c
:1071ec00100078000005b00010407800f44050000a
:1071fc000e80e800014878000e80e800104078000e
:10720c00eb4f500017003a0080548000b3c0b3001d
:10721c00f2c0b300800078006400470010007800d2
:10722c00d0010700e10f50000800320020002000c0
:10723c00000f780066004700100078008000eb001b
:10724c00e01bb00001087800a90037006600470079
:10725c001000780011002000e01bb000010878003d
:10726c00a30037000e80e80010407800e84f500073
:10727c0026003a009054800083c0b300f2c0b300e3
:10728c00800078006400470010007800b50107000a
:10729c00e10f500017003200a054800083c0b300ef
:1072ac00f2c0b30080007800640047001000780042
:1072bc00ac010700e10f5000080032002000200054
:1072cc00000f780066004700100078008000eb008b
:1072dc00e01bb0000108780085003700660047000d
:1072ec001000780051002000e01bb000010878006d
:1072fc007f00370066004700100078002100200056
:10730c00e01bb00001087800790037000e80e8001f
:10731c0010407800e74f500017003a00b05480003e
:10732c0073c0b300f2c0b300800078006400470063
:10733c00100078008b010700e10f500008003200ac
:10734c0020002000000f7800660047001000780035
:10735c008000eb00e01bb0000108780064003700ef
:10736c00660047001000780031002000e01bb000e0
:10737c00010878005e0037000e80e80010407800ad
:10738c00ee4f500017003a00c0548000e3c0b30029
:10739c00f2c0b30080007800640047001000780051
:1073ac0070010700e10f500008003200200020009f
:1073bc00000f780066004700100078008000eb009a
:1073cc00e01bb00001087800490037006600470058
:1073dc001000780041002000e01bb000010878008c
:1073ec00430037000e80e80010407800f24f500048
:1073fc0017003a00d054800023c1b300f2c0b30090
:10740c0080007800640047001000780055010700e8
:10741c00e10f50000800320020002000000f78001f
:10742c0066004700100078008000eb00e01bb00005
:10743c00010878002e003700660047001000780025
:10744c0061002000e01bb000010878002800370024
:10745c000e80e80010407800ef4f500017003a0003
:10746c00e0548000f3c0b300f2c0b3008000780099
:10747c0064004700100078003a010700e10f50004b
:10748c000800320020002000000f78006600470042
:10749c00100078008000eb00e01bb00001087800c1
:1074ac0013003700660047001000780071002000c0
:1074bc00e01bb000010878000d0037002000200010
:1074cc00000f780066004700100078008000eb0089
:1074dc00e01bb000010878000500370020002000f8
:1074ec00000f78000200370020002000000f780009
:1074fc006400470010007800110020004005b00027
:10750c00010878001e0078000080fa0000000600d8
:10751c000600fa000e81e8000009780064004700bc
:10752c0001087800f0c0b300004f78008040eb00f9
:10753c000e00e800014878000e80e800100078008a
:10754c002005b00010007800e70f5000a0003a00b2
:10755c000e80e800100078004005b00010007800a4
:10756c00e20f50009a0032000e80e8001000780004
:10757c00210020004005b000010878002052800056
:10758c00e3c0b3000041eb00800078000e80e800ff
:10759c0010007800f3000700e10f500087003a005c
:1075ac00a051800023c0b3001e41780080007800f9
:1075bc000e80e80010007800ea000700e10f500090
:1075cc0008003a0064004700100078001100200009
:1075dc00001cb000010878009e40780063cf40008a
:1075ec000700370064004700100078008000eb00b3
:1075fc00001cb000010878009e40780064cf400069
:10760c000e80e800100078000005b00010407800f3
:10761c00004178009e4078000e80e8001000780051
:10762c00f70007008e00e8008048780064004700ef
:10763c0010007800201cb000800178000e00e800db
:10764c00104178009e4078000e80e8001000780011
:10765c0019010700e10f500058003a000e00e80035
:10766c00104078001e404000004fe8000e80e800fb
:10767c00100078000005b000104078000041780040
:10768c009e4078000e80e80010007800dc000700b7
:10769c008e00e800804878006400470010007800f5
:1076ac00401cb000800178000e00e800104178000a
:1076bc009e4078000e80e80010007800fe00070065
:1076cc00e10f50003d003a000e00e8001040780039
:1076dc001e404000004fe8000e80e80010007800cb
:1076ec000005b00010407800004178009e40780002
:1076fc000e80e80010007800c10007008e00e80042
:10770c00804878006400470010007800601cb000ce
:10771c00800178000e00e800104178009e4078004f
:10772c000e80e80010007800e3000700e10f500025
:10773c0022003a000e80e800100078000005b0002e
:10774c0010407800804078000e00e800104078006f
:10775c001e40400000c0ea0000cf4000640047001b
:10776c0010007800811c2000808040000e80e80012
:10777c00100078000005b000104078001e4050004a
:10778c0081017800004178009e4078000e80e8006e
:10779c0010007800c8000700e10f500007003a0005
:1077ac000e80e80010007800110020004005b000a9
:1077bc000108780010002000060037000e80e80059
:1077cc0010007800110020004005b000010878007e
:1077dc00200020000080fa00000006000400fa00df
:1077ec00000f78000e80e800010878001e00780079
:1077fc002005b00010007800e70f50002f003a0071
:10780c001e0078004005b00010007800e20f500018
:10781c002a0032001e007800210020004005b00034
:10782c00010878009052800003c1b3000041eb00c6
:10783c00800078001e0078004a000700e10f50001d
:10784c001a003a001e0078007100400010407800c9
:10785c000000fb000003b100800078000e80e800ff
:10786c0010007800c01db000010878001e007800e0
:10787c0073004000104078000000fb000003b100d2
:10788c00800078000e80e80010007800e01db00049
:10789c00010878001e007800110020004005b0009f
:1078ac000108780010002000050037001e00780049
:1078bc00110020004005b0000108780020002000d5
:1078cc000080fa00000006000400fa00000f7800a7
:1078dc000e80e800010878001e0078002005b0003a
:1078ec0010007800e70f50001b003a001e007800d3
:1078fc004005b00010007800e20f50001600320076
:10790c001e007800210020004005b000010878001e
:10791c005052800043c1b3000041eb00800078005e
:10792c001e0078000f000700e10f500006003a001f
:10793c001e007800110020004005b00001087800fe
:10794c0010002000050037001e00780011002000f8
:10795c004005b00001087800200020000080fa00eb
:10796c00000006000800fa000e82e800000a780009
:10797c006400470001087800660047000248780060
:10798c0067004700034878000040eb00004f780088
:10799c00130037009e80fb00660047001040780003
:1079ac000080fb00008040008e80e8009100780091
:1079bc0000804000904078001e80fb00640147006e
:1079cc0012017800000041001040780080cf500078
:1079dc000200320020002000070037001e4fe80094
:1079ec0067004700104078009e40780080cf500020
:1079fc00e8ff3900100020000080fa0000000600ab
:107a0c000600fa008e81e8008009780064004700c7
:107a1c000148780065004700024878008040eb0080
:107a2c000e00e8000148780064004700104f780011
:107a3c00140037001e80fb008e80e8009100780057
:107a4c0000804000104078000000fb0080007800af
:107a5c0030672a00808f5000070032000e00e800cb
:107a6c00104078008040e8000e00e80001487800e3
:107a7c001e4fe800030037000e00e80010407800ad
:107a8c000b0037009e80fb0065004700104078001b
:107a9c000081fb0064004700104078000080fb0070
:107aac0000005100808f5000e2ff35000040eb00d9
:107abc000080fa00000006000e00fa006802470081
:107acc00000a78006a004700014878006b00470004
:107adc00024878006c004700030878000040eb0077
:107aec00004f78008000eb0066004700010878002a
:107afc008000eb000e80e8000108780011002000e7
:107b0c0064004700010878000040eb00004f78004b
:107b1c003a0037006a004700104078000080fb00f4
:107b2c008000e9006b004700104078000081fb00ea
:107b3c001e80fb000000510000804000e800470060
:107b4c009100780000804000104078008000fb001d
:107b5c006600470001087800660047009000780036
:107b6c00f0022000808f5000220036006600470093
:107b7c009000780090032000808f50001d003e0084
:107b8c00660047001000780001fd2f008080400047
:107b9c0066004700010878006600470090007800f6
:107bac0064004700100078000088b900800078005d
:107bbc0066004700010878000e80e800900078000d
:107bcc006600470010007800808040000e80e800be
:107bdc000108780064004700100078006a00b900c2
:107bec008000780064004700010878001e4fe80010
:107bfc0002003700200020000a0037006b0047000d
:107c0c00104078009e40780080cf5000c1ff3900b2
:107c1c006c004700900078000e80e8009008780017
:107c2c00100020000080fa00000006000c00fa0092
:107c3c00881f7800e60147008089be006a00470073
:107c4c00020878008040eb000e00e8000148780044
:107c5c000e80e800e600470031187800211078000b
:107c6c000c0037000e80e8001000be00a2002000bf
:107c7c000300200049f207000e81e8000089be00d5
:107c8c000e00e800104078008040e8000e00e8008c
:107c9c00014878000e80e8001000be00e00f500094
:107cac00e08f5800efff3a000e00e800104078001b
:107cbc000004e00005003a000e00e80010407800d7
:107ccc008040e8000e00e800014878000e00e80053
:107cdc00104f7800150037001e80fb000000e900f3
:107cec00ea004700910078000084400066004700dd
:107cfc001000be00a20020000300200037f2070095
:107d0c00004078000043b000004c7800660047004b
:107d1c001000be00a2002000030020001ff207008c
:107d2c00660147000089be001e4fe9001e40780026
:107d3c000004e000e8ff3a000e00e8001040780074
:107d4c004f0478000080fa00000006000200fa00e0
:107d5c00000f78001e00780008f90700e10f5000b2
:107d6c0002003200200020000f00370031002000fc
:107d7c001e00780008f90700e10f500002003200e5
:107d8c002000200008003700210020001e00780091
:107d9c000cf90700e10f5000020032002000200017
:107dac0001003700100020000080fa0000000600df
:107dbc000200fa00000f7800310020001e0078004d
:107dcc0000f90700e10f50000200320020002000f3
:107ddc0001003700100020000080fa0000000600af
:107dec000a00fa00e40147008009780066004700a9
:107dfc000108780068004700024878008040eb00da
:107e0c000e00e800014878008040eb000e80e8008e
:107e1c00014878000040eb00004f780081003700eb
:107e2c008040eb0063004700014878001e80fb0097
:107e3c00e4004700910078000080400090407800fa
:107e4c00f0c2b30080cf5000330034001e80fb0022
:107e5c00e4004700910078000080400090407800da
:107e6c0090c3b30080cf500004003c0001c3b300aa
:107e7c006300470001487800270037001e80fb0094
:107e8c00e4004700910078000080400090407800aa
:107e9c0000c4b30080cf50001f0034001e80fb00d4
:107eac00e40047009100780000804000904078008a
:107ebc00a0c5b30080cf500004003c0071c3b300d8
:107ecc006300470001487800130037001e80fb0058
:107edc00e40047009100780000804000904078005a
:107eec0000c6b30080cf50000b0034001e80fb0096
:107efc00e40047009100780000804000904078003a
:107f0c00a0c7b30080cf500003003c0071c5b30084
:107f1c006300470001487800630047001040780078
:107f2c000004e0003e0032000e00e8001040780033
:107f3c000004e00012003a000e80e80010407800c7
:107f4c000080fb00e60047009100780000804000b4
:107f5c009e80fb0064014700120178008100410003
:107f6c009140780001417800e3004700914078008f
:107f7c0081405100c408dd0001487800180037002a
:107f8c000e80e800104078000080fb00e6004700ff
:107f9c0091007800008040008e80e80091407800cd
:107fac008180fb00660147001201780081004100ce
:107fbc00114178009e80fb00e4014700930178009a
:107fcc00818041009140780081417800e3004700b6
:107fdc009140780081c051008140410001487800f7
:107fec000e00e800104078000004e00009003200a8
:107ffc008040eb000e00e800014878000e80e8009d
:10800c00104078008040e8000e80e80001487800bd
:10801c000300370011c0b3000e00e80001487800df
:10802c001e4fe80068004700104078009e40780022
:10803c0080cf50007aff3900100020000080fa0039
:10804c00000006000200fa00004f78001e40780085
:10805c00340007003d0007002a0007000080fa00ea
:10806c00000006000000fa002a0007003700070095
:10807c000080fa00000006000000fa0010c0b300f7
:10808c0004e8b7000080fa00000006000000fa00c7
:10809c000468ef000080fa00000006000000fa00ff
:1080ac0004c8bf000080fa00000006000000fa00bf
:1080bc0010c0b30007e8b7000080fa00000006000b
:1080cc000000fa000768ef000080fa0000000600cc
:1080dc000000fa0007c8bf000080fa00000006008c
:1080ec000000fa00b8070700034b20000001eb006a
:1080fc0041012000a0a22000260007000080fa0009
:10810c00000006000000fa00220e07000080fa00b2
:10811c00000006000000fa00260e07000080fa009e
:10812c00000006000200fa00004f78001e407800a4
:10813c00dc0d07000080fa00000006000000fa00c9
:10814c00cdff07000080fa00000006000000fa00d6
:10815c00ceff07000080fa00000006000200fa00c3
:10816c00004f78001e407800b6ff07000080fa0030
:10817c00000006000000fa00baff07000080fa00b9
:10818c00000006000000fa00c4ff07000080fa009f
:10819c00000006000800fa00000f78000e80e800ce
:1081ac000108780064004700020878006600470068
:1081bc00030878009e0078000e80e8009008780094
:1081cc001e00780064004000e400470011087800ad
:1081dc001e0078000080e800e600470011087800d7
:1081ec000080fa00000006000000fa004c0e0700a8
:1081fc000080fa00000006000000fa00500e070094
:10820c000080fa00000006000000fa00070e0700cc
:10821c000080fa00000006000200fa00000f78004f
:10822c001e007800100078000000e0000d00320005
:10823c001e007800100078008000e9001e00780015
:10824c00010878001e007800100078000000e000a3
:10825c0002003a0010c0b300030037000040eb00ee
:10826c000100370010c0b3000080fa0000000600c7
:10827c000000fa009800a8000080fa000000060038
:10828c000000fa009800a9000080fa000000060027
:10829c000400fa00000f78000e80e8000108780056
:1082ac009e0078000e80e800900878000080fa00ac
:1082bc00000006000200fa00000f78001e00780093
:1082cc008000eb00010878000080fa000000060036
:1082dc000200fa00000f78001e00780010007800f1
:1082ec000080fa00000006000000fa006fff070093
:1082fc000080fa00000006000000fa0070ff070082
:10830c000080fa00000006000000fa0070ff070071
:10831c000080fa00000006000400fa00000f78004c
:10832c000e80e800010878001e0078000080e8004c
:10833c008e80e800110878000080fa00000006002a
:10834c000200fa00000f78001e0078008000eb009d
:10835c000080e800010878000080fa0000000600a8
:10836c000200fa00000f78001e0078000080e80080
:10837c00100078000080fa00000006000000fa00ef
:10838c00c03380004800de00614060000080fa00cd
:10839c00000006000000fa007b06a9000080fa002d
:1083ac00000006000000fa007b06a8000080fa001e
:1083bc00000006000200fa00000f78001e00780092
:1083cc0072004000100078000080fa0000000600e7
:1083dc000400fa00000f78000e80e8000108780015
:1083ec001e007800720040008e80e80011087800b2
:1083fc000080fa00000006000200fa00000f78006e
:10840c001e0078000080e800100078000080fa0060
:10841c00000006000200fa00000f78001e00780031
:10842c00100078000080fa00000006000200fa003c
:10843c00000f78001e0078007200400010007800d9
:10844c00e10f500076003a001e0078000080e80032
:10845c0010007800e30f500064003200e30f50006e
:10846c0003003e00e10f50005300320002003700c1
:10847c00e50f5000310036001e00780090007800a7
:10848c0070d42000808f50000d003e001e0078003c
:10849c0074004000100078000000e000040032007e
:1084ac00910020001e0078008b000700810037002f
:1084bc00410020001e007800870007007d00370077
:1084cc00609f2000d3ff070081062100810f500020
:1084dc000d0036001e00780074004000100078007b
:1084ec000000e00004003200b10020001e00780003
:1084fc00790007006f003700410020001e00780053
:10850c00750007006b0037001e00780074004000f7
:10851c00100078000000e000040032008100200010
:10852c001e0078006c00070062003700410020003c
:10853c001e007800680007005e003700609f200076
:10854c00b4ff070071062100810f50000d003e00a2
:10855c001e00780074004000100078000000e0005d
:10856c0004003200a10020001e0078005a00070011
:10857c0050003700610020001e00780056000700f4
:10858c004c0037001e00780074004000100078008a
:10859c000000e00004003200b10020001e00780052
:1085ac004d00070043003700710020001e007800ca
:1085bc00490007003f0037001e007800740040009f
:1085cc00100078000000e00004003200a100200040
:1085dc001e007800400007003600370061002000c4
:1085ec001e0078003c000700320037001e007800a7
:1085fc0074004000100078000000e000040032001d
:10860c00b10020001e00780033000700290037005d
:10861c00710020001e0078002f0007002500370095
:10862c001e00780072004000100078000000e0008e
:10863c001d003a001e0078000080e8001000780051
:10864c00e30f500014003200e30f500003003e0013
:10865c00e10f50000b00320002003700e50f500014
:10866c00040036008000eb001e0078001a000700a2
:10867c0010003700210020001e00780016000700b3
:10868c000c003700110020001e00780012000700bb
:10869c000000000007003700210020001e007800b9
:1086ac000d00070003003700310020001e00780089
:1086bc00090007000080fa00000006000200fa0022
:1086cc00000f78001e0078000003b0001000780046
:1086dc000080fa00000006000400fa00000f780089
:1086ec000e80e800010878001e0078000003b0003e
:1086fc008e80e800110878000080fa000000060067
:10870c000200fa00000f78001e0078002003b00071
:10871c00100078000080fa00000006000400fa0047
:10872c00000f78000e80e800010878001e00780029
:10873c002003b0008e80e800110878000080fa0059
:10874c00000006000000fa007ba6a8007bc6a8006b
:10875c007be6a8000080fa00000006000000fa008a
:10876c007ba6a9007bc6a8007be6a8000080fa00c7
:10877c00000006000000fa007ba6a8007bc6a9003a
:10878c007be6a8000080fa00000006000000fa005a
:10879c007ba6a8007bc6a8007be6a9000080fa0097
:1087ac00000006000000fa007ba6a8007bc6a8000b
:1087bc007be6a8000080fa00000006000000fa002a
:1087cc00c03380004d00de00614060000080fa0084
:1087dc00000006000000fa00c03380004e00de00ee
:1087ec00614060000080fa00000006000000fa0002
:1087fc00c03380004f00de00004078000080fa009b
:10880c00000006000800fa00000f78000e80e80057
:10881c0001087800640047000208780066004700f1
:10882c000308780032c8bf000004e00021003a00c1
:10883c0066004700100078006400400010007800cb
:10884c000000e00028003a001e007800e20f500003
:10885c0006003200e30f500006003200e10f50001a
:10886c0006003a00c9ff070006003700bbff0700ef
:10887c0004003700bfff070002003700c9ff0700e4
:10888c000000000066004700100078006400400003
:10889c008e80e80011087800640047001000780012
:1088ac000000e0001000320010c0b30032e8b70046
:1088bc000d0037006600470010007800640040008f
:1088cc00100078000000e00007003a00b5ff070038
:1088dc00660047001000780064004000e400470088
:1088ec00110878003268ef000080fa0000000600e2
:1088fc000000fa000080fa00000006000000fa00f8
:10890c000080fa00000006000000fa00f4f00700f6
:10891c000080fa00000006000000fa00f4f00700e6
:10892c000080fa00000006000000fa009e03070019
:10893c000080fa00000006000000fa008980a900ff
:10894c009980a8000080fa00000006000200fa00de
:10895c00004f78001e407800810307000080fa0069
:10896c00000006000200fa00000f78001e007800dc
:10897c00c6f507000080fa00000006000200fa00ad
:10898c00000f78001e007800f1f507000080fa0057
:10899c00000006000000fa0010c0b30031e8b70078
:1089ac000080fa00000006000000fa0031c8bf0089
:1089bc000080fa00000006000000fa003168ef00a9
:1089cc000080fa00000006000000fa003068ef009a
:1089dc000080fa00000006000000fa003068ef008a
:1089ec000080fa00000006000000fa0030c8bf004a
:1089fc000080fa00000006000000fa00880407005e
:108a0c000080fa00000006000000fa008a0407004b
:108a1c000080fa00000006000000fa008a0407003b
:108a2c000080fa00000006000000fa008a0407002b
:108a3c000080fa00000006000400fa00000f780025
:108a4c000e80e800010878000e80e80090007800a5
:108a5c001e007800dbf507000080fa00000006001d
:108a6c000400fa00000f78000e80e800014878003e
:108a7c000e80e8009040780000c4b30080cf500016
:108a8c000a003a0050052000a10a20007d040700ce
:108a9c006022b8006011b800408021000100200065
:108aac00b50407007c0407000000fe000e80e800ff
:108abc00904078001e007800bbf707000080fa0099
:108acc00000006000200fa00000f78001e0078007b
:108adc0069f807000080fa00000006000c00fa009c
:108aec0068014700000978006a00470001487800d7
:108afc008040eb000e80e800014878008000eb001d
:108b0c00640047000108780021002000660047003f
:108b1c0001087800a08320000ff5070089013700b9
:108b2c0068004700100078008000eb00d2022000a3
:108b3c0003002000820f5000838f580061013e001b
:108b4c00006001002d00370033003700390037007a
:108b5c003f003700450037004b003700510037000d
:108b6c00570037005d00370063003700690037009d
:108b7c006f003700750037007b003700810037002d
:108b8c00870037008d0037009300370099003700bd
:108b9c009f003700a5003700aa003700af00370050
:108bac00b4003700b9003700be003700c3003700ef
:108bbc00c8003700cd003700d2003700d70037008f
:108bcc00dc003700e1003700e7003700ed0037002c
:108bdc00f3003700f9003700ff00370005013700bc
:108bec000b01370011013700160137001b0137004c
:108bfc0020013700250137002b013700a18320000d
:108c0c000000eb003ef00700800078006400470095
:108c1c00010878002c013700a183200010002000ef
:108c2c0037f00700800078006400470001087800e6
:108c3c0025013700a18320002000200030f0070020
:108c4c008000780064004700010878001e0137009e
:108c5c00a18320003000200029f00700800078005c
:108c6c00640047000108780017013700a183200039
:108c7c004000200022f007008000780064004700cc
:108c8c000108780010013700a1832000500020005b
:108c9c001bf0070080007800640047000108780092
:108cac0009013700a18320006000200014f00700a8
:108cbc00800078006400470001087800020137004a
:108ccc00a1832000700020000df0070080007800c8
:108cdc006400470001087800fb003700a1832000e6
:108cec008000200006f00700800078006400470038
:108cfc0001087800f4003700a183200090002000c8
:108d0c00ffef07008000780064004700010878003e
:108d1c00ed003700a1832000a0002000f8ef070031
:108d2c00800078006400470001087800e6003700f6
:108d3c00a1832000b0002000f1ef07008000780034
:108d4c006400470001087800df003700a183200091
:108d5c00c0002000eaef07008000780064004700a4
:108d6c0001087800d8003700a1832000d000200033
:108d7c00e3ef0700800078006400470001087800ea
:108d8c00d1003700a1832000e0002000dcef0700b9
:108d9c00800078006400470001087800ca003700a2
:108dac00a1832000f0002000d5ef070080007800a0
:108dbc006400470001087800c3003700a18320003d
:108dcc0000012000ceef070080007800640047000f
:108ddc0001087800bc003700a1832000100120009e
:108dec00c7ef070080007800640047000108780096
:108dfc00b5003700a183200020012000c0ef070040
:108e0c00800078006400470001087800ae0037004d
:108e1c00a183200030012000b9ef0700800078000a
:108e2c006400470001087800a7003700a0832000e9
:108e3c005df20700800078006400470001087800ac
:108e4c00a1003700a083200080f20700800078008a
:108e5c0064004700010878009b003700a0832000c5
:108e6c00a3f2070080007800640047000108780036
:108e7c0095003700a0832000c6f207008000780020
:108e8c0064004700010878008f003700a0832000a1
:108e9c00e9f20700800078006400470001087800c0
:108eac0089003700a08320000cf3070080007800b5
:108ebc00640047000108780083003700a08320007d
:108ecc002ff3070080007800640047000108780049
:108edc007d003700a083200052f30700800078004b
:108eec00640047000108780077003700a083200059
:108efc0075f30700800078006400470001087800d3
:108f0c0071003700a083200098f3070080007800e0
:108f1c0064004700010878006b003700a083200034
:108f2c00bbf307008000780064004700010878005c
:108f3c0065003700a0832000def307008000780076
:108f4c0064004700010878005f003700a18320000f
:108f5c000000eb006cf00700800078006400470014
:108f6c000108780058003700a18320001000200071
:108f7c0065f0070080007800640047000108780065
:108f8c0051003700a1832000200020005ef0070074
:108f9c008000780064004700010878004a00370020
:108fac00a18320003000200057f0070080007800db
:108fbc00640047000108780043003700a1832000bb
:108fcc004000200050f0070080007800640047004b
:108fdc00010878003c003700a183200050002000dd
:108fec0049f0070080007800640047000108780011
:108ffc0035003700a18320006000200042f00700fc
:10900c008000780064004700010878002e003700cb
:10901c00a1832000700020003bf007008000780046
:10902c00640047000108780027003700a083200067
:10903c0047f10700800078006400470001087800c1
:10904c0021003700a0832000aef1070080007800db
:10905c0064004700010878001b003700a083200043
:10906c00e9f00700800078006400470001087800f0
:10907c0015003700a08320000cf107008000780059
:10908c0064004700010878000f003700a18320001e
:10909c001000200057f107008000780064004700a2
:1090ac000108780008003700a18320002000200070
:1090bc0050f1070080007800640047000108780038
:1090cc000100370000000000640047001000780029
:1090dc00e20f50000b003200e30f5000160032007c
:1090ec00e10f500016003a000e80e800ea0047003d
:1090fc001148780011002000660047000108780034
:10910c00100037000e80e800104078008040e80026
:10911c000e80e800014878000080eb00000f78001a
:10912c00010037001e0fe9001e0078000000e0006f
:10913c00fcff3a000300370000000000010037007c
:10914c00000000000e80e800904078006a004700a4
:10915c001040780080cf500071fe39006600470047
:10916c00100078000080fa00000006000200fa00ef
:10917c0010002000000f780083000700e10f500062
:10918c000200320020002000000f78008c00070045
:10919c00e10f50000200320020002000000f780088
:1091ac00609f2000a1fc0700609f200099fc070035
:1091bc00704188007141800070d42000808f500075
:1091cc0004003e0011c0b3004001200043fe070024
:1091dc00670037007141800080d42000808f5000e0
:1091ec000800360071418000b0da2000808f5000fa
:1091fc0004003e0011c0b3005001200037fe0700f0
:10920c005b00370071418000c0da2000808f500075
:10921c000800360071418000f0e02000808f500083
:10922c0004003e0011c0b300600120002bfe0700bb
:10923c004f0037007141800000e12000808f50000a
:10924c00080036007141800030e72000808f50000c
:10925c0004003e0011c0b300700120001ffe070087
:10926c00430037007141800040e72000808f5000a0
:10927c00080036007141800070ed2000808f500096
:10928c0004003e0011c0b3008001200013fe070053
:10929c00370037007141800080ed2000808f500036
:1092ac000800360071418000b0f32000808f500020
:1092bc0004003e0011c0b3009001200007fe07001f
:1092cc002b00370071418000c0f32000808f5000cc
:1092dc000800360071418000f0f92000808f5000aa
:1092ec0004003e0011c0b300a0012000fbfd0700ec
:1092fc001f0037007141800000fa2000808f500061
:10930c00080036007141800030002100808f500031
:10931c0004003e0011c0b300b0012000effd0700b7
:10932c00130037007141800040002100808f5000f5
:10933c00080036007141800070062100808f5000bb
:10934c0004003e0011c0b300c0012000e3fd070083
:10935c00070037007141800080062100808f50008b
:10936c000300360011c0b300d0012000dbfd070064
:10937c0021c0b300e0012000d8fd07001e007800da
:10938c000080fa00000006000000fa0031c0b300b3
:10939c00b0022000d1fd0700e10f500005003200a3
:1093ac0021002000609f200009fc07002000200005
:1093bc0001003700100020000080fa0000000600b9
:1093cc000200fa0010002000000f780031c0b3003a
:1093dc00a0022000c1fd0700e10f500012003a006e
:1093ec00609f200004fc0700e50f50000c003a00c1
:1093fc00609f200007fc070071062100810f5000c0
:10940c0007003e0031c0b30010002000b3fd070080
:10941c00e10f50000200320020002000000f780005
:10942c001000200001003700200020000080fa000e
:10943c00000006000200fa0010002000000f780067
