:020000040000fa
:080000000008040000000000ec
:020000040000fa
:0400080004090000e7
:020000040000fa
:04000c0046090000a1
:020000040000fa
:04001000860900005d
:020000040000fa
:0400140024090000bb
:020000040000fa
:040018006609000075
:020000040000fa
:04001c00a609000031
:020000040000fa
:04002000a60900002d
:020000040000fa
:04002400a609000029
:020000040000fa
:04002800a609000025
:020000040000fa
:04002c00a609000021
:020000040000fa
:04003000a60900001d
:020000040000fa
:04003400a609000019
:020000040000fa
:04003800a609000015
:020000040000fa
:04003c00a609000011
:020000040000fa
:04004000a60900000d
:020000040000fa
:04004400a609000009
:020000040000fa
:04004800a609000005
:020000040000fa
:04004c00a609000001
:020000040000fa
:04005000a6090000fd
:020000040000fa
:04005400a6090000f9
:020000040000fa
:04005800a6090000f5
:020000040000fa
:04005c00a6090000f1
:020000040000fa
:04006000a6090000ed
:020000040000fa
:04006400a6090000e9
:020000040000fa
:04006800a6090000e5
:020000040000fa
:04006c00a6090000e1
:020000040000fa
:04007000a6090000dd
:020000040000fa
:04007400a6090000d9
:020000040000fa
:04007800a6090000d5
:020000040000fa
:04007c00a6090000d1
:020000040000fa
:04008000a6090000cd
:020000040000fa
:04008400a6090000c9
:020000040000fa
:04008800a6090000c5
:020000040000fa
:04008c00a6090000c1
:020000040000fa
:04009000a6090000bd
:020000040000fa
:04009400a6090000b9
:020000040000fa
:04009800a6090000b5
:020000040000fa
:04009c00a6090000b1
:020000040000fa
:0400a000a6090000ad
:020000040000fa
:0400a400a6090000a9
:020000040000fa
:0400a800a6090000a5
:020000040000fa
:0400ac00a6090000a1
:020000040000fa
:0400b000a60900009d
:020000040000fa
:0400b400a609000099
:020000040000fa
:0400b800a609000095
:020000040000fa
:0400bc00a609000091
:020000040000fa
:0400c000a60900008d
:020000040000fa
:0400c400a609000089
:020000040000fa
:0400c800a609000085
:020000040000fa
:0400cc00a609000081
:020000040000fa
:0400d000a60900007d
:020000040000fa
:0400d400a609000079
:020000040000fa
:0400d800a609000075
:020000040000fa
:0400dc00a609000071
:020000040000fa
:0400e000a60900006d
:020000040000fa
:0400e400a609000069
:020000040000fa
:0400e800a609000065
:020000040000fa
:0400ec00a609000061
:020000040000fa
:0400f000a60900005d
:020000040000fa
:0400f400a609000059
:020000040000fa
:0400f800a609000055
:020000040000fa
:0400fc00a609000051
:020000040000fa
:04010000a60900004c
:020000040000fa
:04010400a609000048
:020000040000fa
:04010800a609000044
:020000040000fa
:04010c00a609000040
:020000040000fa
:04011000a60900003c
:020000040000fa
:04011400a609000038
:020000040000fa
:04011800a609000034
:020000040000fa
:04011c00a609000030
:020000040000fa
:04012000a60900002c
:020000040000fa
:04012400a609000028
:020000040000fa
:04012800a609000024
:020000040000fa
:04012c00a609000020
:020000040000fa
:04013000a60900001c
:020000040000fa
:04013400a609000018
:020000040000fa
:04013800a609000014
:020000040000fa
:04013c00a609000010
:020000040000fa
:04014000a60900000c
:020000040000fa
:04014400a609000008
:020000040000fa
:04014800a609000004
:020000040000fa
:04014c00a609000000
:020000040000fa
:04015000a6090000fc
:020000040000fa
:04015400a6090000f8
:020000040000fa
:04015800a6090000f4
:020000040000fa
:04015c00a6090000f0
:020000040000fa
:04016000a6090000ec
:020000040000fa
:04016400a6090000e8
:020000040000fa
:04016800a6090000e4
:020000040000fa
:04016c00a6090000e0
:020000040000fa
:04017000a6090000dc
:020000040000fa
:04017400a6090000d8
:020000040000fa
:04017800a6090000d4
:020000040000fa
:04017c00a6090000d0
:020000040000fa
:04018000a6090000cc
:020000040000fa
:04018400a6090000c8
:020000040000fa
:04018800a6090000c4
:020000040000fa
:04018c00a6090000c0
:020000040000fa
:04019000a6090000bc
:020000040000fa
:04019400a6090000b8
:020000040000fa
:04019800a6090000b4
:020000040000fa
:04019c00a6090000b0
:020000040000fa
:0401a000a6090000ac
:020000040000fa
:0401a400a6090000a8
:020000040000fa
:0401a800a6090000a4
:020000040000fa
:0401ac00a6090000a0
:020000040000fa
:0401b000a60900009c
:020000040000fa
:0401b400a609000098
:020000040000fa
:0401b800a609000094
:020000040000fa
:0401bc00a609000090
:020000040000fa
:0401c000a60900008c
:020000040000fa
:0401c400a609000088
:020000040000fa
:0401c800a609000084
:020000040000fa
:0401cc00a609000080
:020000040000fa
:0401d000a60900007c
:020000040000fa
:0401d400a609000078
:020000040000fa
:0401d800a609000074
:020000040000fa
:0401dc00a609000070
:020000040000fa
:0401e000a60900006c
:020000040000fa
:0401e400a609000068
:020000040000fa
:0401e800a609000064
:020000040000fa
:0401ec00a609000060
:020000040000fa
:0401f000a60900005c
:020000040000fa
:0401f400a609000058
:020000040000fa
:0401f800a609000054
:020000040000fa
:0401fc00a609000050
:020000040000fa
:10100000efa220000e7f24000e01880000000000e7
:10101000000020000000e00002003200000120007b
:101020002002880014000700ca0007000000e0004a
:1010300003003a0040702100010020000200370048
:101040000000200001002000810f7000010032002c
:1010500014000700000020000000e0000200320041
:101060000000020000000000fe0e02000000000070
:101070000040da000000fe004440a9000009200002
:101080000000e000030032000020200090018800f2
:101090004440a800000006008a1f78008b1f7800db
:1010a00000000600a1028800800478000000eb0028
:1010b0001f003700e284440054a0b4009905ba0030
:1010c000e284440054a0b4009906ba00e2844400cb
:1010d00054a0b4000006eb00476fde00fd07b2002d
:1010e000ae018800636ce10003003a00eaff0700ec
:1010f0000000eb000e003700606ce10008003a00d1
:10110000004deb000a05e800020039003420ec0035
:101110000af0a0008b05e900f9ff3e00040037004b
:101120006168e100010032000086eb000b0007005f
:1011300019c7ba001905ba000e04e00003003a000e
:101140000a00e000dbff3a0000000600fe07b200e4
:10115000ae0288008a047800f5ff37000cd0a300a7
:10116000e20f4d001c00390089027800354dba00ad
:101170000a05e800020039003420ec000af0a00063
:101180008b05e9000f003200254dba000a05e80082
:10119000020039003420ec000af0a0008b05e900c1
:1011a000080032000c00e0000600320015cdba0045
:1011b0000a05e800020039003420ec000af0a00023
:1011c0008b05e9008984e80054a0b4000b00e0001e
:1011d000e2ff3a00000006009902ba00055d7800bf
:1011e0008b05e900f7ff3200c82ade00055d7800b4
:1011f0008b05e900f3ff32000c00e000f1ff320044
:1012000019ddba00eeff37003600f800809fbe00ff
:10121000829fbe00849fbe00869fbe000000fa0031
:101220008020a9000000eb001b0707000080fa00e7
:101230004f03be004f02be004f01be004f00be0074
:101240003600f900004006003600f800809fbe001e
:10125000829fbe00849fbe00869fbe000000fa00f1
:10126000120707008040a900100020000a070700ad
:101270000080fa004f03be004f02be004f01be00c7
:101280004f00be003600f900004006003600f800ae
:10129000809fbe00829fbe00849fbe00869fbe00ce
:1012a0000000fa008060a90020002000fa06070074
:1012b0000080fa004f03be004f02be004f01be0087
:1012c0004f00be003600f900004006003600f8006e
:1012d000809fbe00829fbe00849fbe00869fbe008e
:1012e0000000fa008080a90030002000ea06070014
:1012f0000080fa004f03be004f02be004f01be0047
:101300004f00be003600f900004006003600f8002d
:10131000809fbe00829fbe00849fbe00869fbe004d
:101320000000fa008600a90070002000da0607001d
:101330000080fa004f03be004f02be004f01be0006
:101340004f00be003600f900004006000040da0001
:081350000000fe000000050092
:020000040000fa
:1013580023230000234600004f54000041230000cf
:1013680023230000003c00003c3c000072650000a4
:1013780061640000793e00003e3e00000045000028
:101388004e540000455200005f44000041540000e4
:10139800415f00004d4f000044450000203100002f
:1013a800350d0000004f00004b0d00000045000007
:1013b800525200004f520000003c00003c3c00002c
:1013c800003e00003e3e00000023000023230000f2
:1013d800534900005a450000232300002300000061
:1013e8002323000023530000454e0000442300003f
:1013f80023230000002300002323000046410000af
:10140800494c00002d5400004f55000054230000a3
:1014180023230000002400000023000023230000f1
:1014280046410000494c00002d4300005355000080
:101438004d23000023230000002300002323000085
:1014480045580000495400002323000023000000f1
:101458002323000023420000494e000056200000cc
:101468002d2d00002d2d0000232300002300000057
:020000040000fa
:101478000400fa008e80e800800878000000eb0085
:10148800000f78001c00370000c8bf008080fb00f8
:101498000e80e800100078001e0040001040780020
:1014a8000080fb0080804000f00f200000017800e1
:1014b800110009008200d8008000fd00004078007b
:1014c80000e8b70001c8bf008080fb0000c8bf006b
:1014d8000080fb0080804000f00f200000017800b1
:1014e800110009008200d8008000fd00004078004b
:1014f80001e8b7001e0fe800f01f20009e007800ea
:10150800808f5000e0ff360001c8bf000080fb005c
:10151800c800dd0000c8bf000080fb00008040005c
:10152800104088000080fa00000006000600fa005b
:10153800e4004700800878000040eb00004f780086
:101548005a0037001e80fb00e40047009100780035
:101558000080400090407800f0c2b30080cf500077
:10156800160034001e80fb00e4004700910078005c
:10157800008040009040780090c3b30080cf5000b6
:101588000e003c001e80fb00e4004700910078003c
:10159800008040009e80fb00640147001201780033
:1015a80081004100914078000141780001cdb300ed
:1015b80081404100014878003b0037001e80fb0055
:1015c800e4004700910078000080400090407800d7
:1015d80000c6b30080cf5000160034001e80fb0008
:1015e800e4004700910078000080400090407800b7
:1015f80060c6b30080cf50000e003c001e80fb0088
:10160800e400470091007800008040009e80fb00c5
:101618006401470012017800810041009140780080
:101628000141780091cab300814041000148780027
:101638001d0037001e80fb00e40047009100780081
:10164800008040009040780000c4b30080cf500074
:10165800150034001e80fb00e4004700910078006c
:10166800008040009040780060c4b30080cf5000f4
:101678000d003c001e80fb00e4004700910078004c
:10168800008040009e80fb00640147001201780042
:1016980081004100914078000141780091ccb3006d
:1016a80081404100014878001e4fe8001e40780044
:1016b800e34f5000a3ff3600640047001000780095
:1016c800104078000000fb00c400dd006400470003
:1016d800100078000000e800104078000000fb00cf
:1016e80000804000c400dd0064004700100078005e
:1016f8000080e800104078000000fb0000804000f7
:10170800c400dd006400470010007800630040005a
:10171800104078000000fb00808040000e80e80048
:10172800010878000e80e800100078000080fa00b8
:10173800000006000600fa000e81e80000097800a3
:101748006400470001087800640047001000780032
:101758004c00de00004078008e80e80091007800a0
:10176800804878000e80e800100078000000e8004b
:10177800e40047001101780001f0200081006100b9
:10178800c808de0081407800014878000e80e80033
:10179800100078000080e800e4004700110178009c
:1017a800010f200081006100c408de00814078003c
:1017b800014878000e80e8001000780063004000bf
:1017c800e40047009100780081407800efc0600095
:1017d800014878000040eb00004f780034003700e3
:1017e8001e00fb008e80e800910078000080400019
:1017f800104078000004e000130035001e00fb00d4
:101808008e80e80091007800008040001040780049
:10181800e94f50000c003c001e00fb008e80e800e1
:1018280091007800008040009e00fb000e81e800d7
:101838001201780081004100914078000143b00016
:1018480001487800190037001e00fb008e80e80070
:10185800910078000080400010407800e94f500067
:10186800120034001e00fb008e80e8009100780012
:101878000080400010407800ef4f50000b003c0003
:101888001e00fb008e80e800910078000080400078
:101898009e00fb000e81e8001201780081004100e3
:1018a800914078007145b000014878001e4fe8006b
:1018b8001e407800e34f5000c9ff34000080fa0052
:1018c800000006000600fa000e81e8000009780012
:1018d80064004700010878000000eb00000f780062
:1018e8000d00370000000000811d8000001020005e
:1018f800008060000000e000fbff32000e80e8007e
:10190800100078001e004000104078000000fb0026
:10191800901d88001e0fe800640047001000780042
:101928009e007800808f5000eeff39000000000014
:10193800811d800000102000008060000000e00091
:10194800fbff32000080fa00000006000600fa00e3
:101958000e81e8000009780064004700010878005b
:10196800a01d8000004078008e80e800910078007b
:1019780080487800801d8000620060000000e00060
:1019880001003200b023a9000000eb00000f78002e
:10199800060037000e80e800100078001e004000a6
:1019a80080c0eb00014878001e0fe8006400470083
:1019b800100078009e007800808f5000f5ff3900f5
:1019c8000080eb00900c88000000eb008904070001
:1019d800950407000000eb00000f78001e00370098
:1019e8008d04070001002c00810f50000400360010
:1019f800940407001e0078001e0037000000000055
:101a0800801d8000610060000000e000f4ff3200eb
:101a1800801d8000620060000000e00001003200cc
:101a2800b023a900a01d8000004078008e80e80047
:101a380091007800804878000e80e8001000780057
:101a48008000e8000e80e800010878000000eb0044
:101a5800680407001e0fe8006400470010007800c3
:101a68009e007800808f5000e4ff39006400470032
:101a7800100078000080fa00000006000800fa0054
:101a88008e81e8008009780064004700010878002a
:101a980066004700024878000040eb00004f7800dd
:101aa8000d0037001e80fb008e80e8009100780052
:101ab80000804000904078001e80fb0064014700d1
:101ac80012017800000041001040780080cf5000db
:101ad80007003a001e4fe8006600470010407800f3
:101ae8009e40780080cf5000eeff3900010037009b
:101af8000000000066004700104078009e40780013
:101b080080cf500002003a0010c0b3000100370037
:101b18000040eb000080fa00000006000800fa0010
:101b2800640147000089be00640047001000be0041
:101b3800a6030700008fbe0050052000a10a200060
:101b4800f90207001e00be0026030700fb0207007b
:101b58000080fa00000006000800fa008e81e80004
:101b68008089be0066004700020878005005200002
:101b7800a10a2000ec0207000040eb00004f7800ab
:101b8800190037001e80fb004300dd0064004000a0
:101b9800e600470091007800008040001001be0078
:101ba8001e80fb004300dd00e6004700910078003e
:101bb800008040001000be001e82fb004222dd00b3
:101bc8006123b9000e82e8001402be000603420039
:101bd80087834a000202be000001be000600be0064
:101be8000e0307001e4fe800f0c3b3009e407800c4
:101bf80080cf5000e3ff3600d00207000080fa00d3
:101c0800000006000c00fa00889fbe008a9fbe00f4
:101c1800008fbe00640047000288be0068004700cd
:101c28000488be0050052000a10a2000be0207005b
:101c3800680047001001be00f0ff2f00f10f2000e0
:101c480002027800030178008001780081007800a2
:101c580003006200810061008105780000057800ba
:101c68000a02be00640047001001be00f0ff2f000a
:101c7800f10f20000203780003017800800178004a
:101c8800810078000300630081006100810478000e
:101c9800000478000800be000001be001e00be005f
:101ca800de020700a50207004f05be004f04be0074
:101cb8000080fa00000006000800fa00889fbe00b5
:101cc8008a9fbe000080210001002000b8020700a2
:101cd800008fbe002080210001002000b402070010
:101ce800640147000089be00f0ff2f00f10f2000bb
:101cf8001e01be000202780003017800800178000e
:101d0800810078000300620081006100810578008d
:101d1800000578000a01be00f0ff2f00f10f200037
:101d2800800f5100818f590002003a0010c0b300a3
:101d38001400370000002000f10f20001e01be0033
:101d480002027800030178008001780081007800a1
:101d580003006200810061008104780000047800bb
:101d68000801be0000002000a10a2000800f5100d9
:101d7800818f590002003a0020c0b30001003700eb
:101d880010c0b3004f05be004f04be000080fa002b
:101d9800000006000000fa009421ef000080eb002c
:101da800900c88009021ef00afe3a900b143a9008f
:101db8000e21ef0010002000600888000080eb0072
:101dc800b03388000080eb00103388007a26ef00db
:101dd8000080eb00f03388000080eb00503388006f
:101de800f0f32300b03d8800d627ef000080fa000a
:101df800000006004000fa00889fbe008a9fbe00cf
:101e08008c9fbe00acff07000004e0000300320016
:101e1800a9ff0700e24f500014003a00408021005b
:101e280001002000620207000001be00f0ff2f0041
:101e3800f10f200002027800030178008001780089
:101e4800810078000300620081006100810678004b
:101e5800000678000c01be00f0ff2f00f10f2000f3
:101e6800800f5100818f59002502320014040700a9
:101e780000a8210061002000f70307000040eb00e4
:101e8800004f780010003700a1002000c09a2800f9
:101e98008cfe070070004700b1002000abfe070071
:101ea800800078000e80e800010878007000470084
:101eb800b2c0b300719b2800f0fe07000004e000e8
:101ec80005003a001e4fe8001e407800e14f500020
:101ed800edff340001003700000000001e407800cc
:101ee800e24f50006d003a0073ff07000004e00065
:101ef8000300320070ff0700e24f500028003a004c
:101f0800008021000100200029020700000078005d
:101f180020408800208021000100200024020700c2
:101f28000001be00f0ff2f00f10f20000202780030
:101f380003017800800178008100780003006200c6
:101f48008100610081047800000478000800be0068
:101f5800680147000089be000080210001002000c0
:101f6800eefe0700204080006101b800000020005c
:101f7800a10a200002004000838048006801470051
:101f88001202be000001be000080210001002000f6
:101f98001cff07000000fe000100370000000000e1
:101fa80031012000309c280046fe070070004700e1
:101fb800d100200065fe0700800078000e80e80050
:101fc800010878007000470032c0b300719d2800f6
:101fd800aafe07000004e00010003a007000470065
:101fe80052c0b300b19d2800a4fe07000004e00021
:101ff8000500320000602300e11620009603070068
:1020080000000000e6ff37000e80e80010007800ae
:102018000000e000e1ff3a00010037000000000086
:1020280000902000d10320008b0307000040eb0044
:10203800004f780010003700a1002000c09a280047
:1020480020fe070070004700b10020003ffe070097
:10205800800078000e80e8000108780070004700d2
:10206800b2c0b300719b280084fe07000004e000a2
:1020780005003a001e4fe8001e407800e94f500066
:10208800edff340001003700000000001e4078001a
:10209800ea4f500001003a009801370000a82100db
:1020a800610020006c03070000802100010020006f
:1020b800bf0107000e81e800000978000103200035
:1020c80081004700c2a228000f000900b25878001a
:1020d800000320000e004000680040008e80e800e9
:1020e8009100780093fd07000040eb00004f780056
:1020f80015003700000320000e004000f10020000a
:10210800f0fd070070004700a10020000ffe070047
:102118007000470032c0b300119e280057fe070028
:102128000004e0000700320070004700670040002c
:1021380032c0b300519e280050fe07000004e000a2
:1021480005003a001e4fe8001e407800e94f500095
:10215800e8ff340001003700000000001e4078004e
:10216800ea4f500001003a00640137007000470050
:1021780063004000edfc0700204088000040eb00b1
:10218800004f78001700370000902000d10320008e
:1021980031030700a1002000909e2800c9fd070018
:1021a80070004700c1002000e8fd070070004700ec
:1021b80032c0b300119e280030fe07000004e00082
:1021c80007003200700047006900400032c0b300c9
:1021d800519e280029fe07000004e00005003a008f
:1021e8001e4fe8001e407800e94f5000e6ff34001b
:1021f80001003700000000001e407800ea4f500040
:1022080001003a003d013700730047001040780094
:102218000000fb000003b100cf80de00026a280046
:102228000289b900020178006102b90084017800ce
:1022380003014100036a28000300b80001014100be
:1022480082007800680147000089be0068014700e5
:102258000089be0074004700104078000000fb00b1
:102268000003b100cf80de00027122000289b900ac
:10227800020178006002b90084017800030141007e
:10228800037122000300b8000101410082007800b8
:10229800680147001201be00020040008380480028
:1022a800680147000089be007500470010407800ab
:1022b8000000fb000003b100cf80de00823e20005a
:1022c8000289b900020178006002b900840178002f
:1022d80003014100833e20000300b80001014100d2
:1022e80082007800680147001201be000200400029
:1022f80083804800680147000089be0076004700d7
:10230800104078000000fb000003b100cf80de0021
:10231800420620000289b900020178006002b90073
:102328008401780003014100430620000300b8003f
:102338000101410082007800680147001201be00d7
:102348000200400083804800680147000089be0001
:1023580077004700104078000000fb000003b10040
:10236800cf80de006a09b900020178006002b90076
:102378008401780003014100a30020000300b80095
:102388000101410082007800680147001201be0087
:102398000200400083804800680147000089be00b1
:1023a80078004700104078000000fb000003b100ef
:1023b800cf80de00680147001201be000200400025
:1023c80083804800680147000089be000080210022
:1023d80001002000d1fd0700680047001002be0080
:1023e80002002000130120000080210001002000cd
:1023f80004fe07000068ef000168ef006000b80005
:10240800640147000089be008e0037006400470061
:102418001000be008100d1000080d3006c0147008d
:102428000089be008000eb000e80e80001087800fb
:102438000d0037000e80e80010007800c200dd00b3
:1024480080802000008140000080eb008080eb004d
:102458000089be000e80e800100078008000e800c7
:102468000e80e800010878000e80e80090007800ef
:10247800f0072000808f5000eeff3600a1002000fa
:10248800409f28000ffd07008080200001202000c9
:102498002efd0700800078000e80e8000108780013
:1024a8000e80e8009000780000202000808f500007
:1024b80004003200f1002000f09f280001fd070011
:1024c8006700370080802000e9fb0700f0a02800a3
:1024d80080407800000320000e004000014878008a
:1024e800f0a0280080407800100320000e00400073
:1024f80001487800f0a028008040780020032000e0
:102508000e004000014878001140800000032000c0
:102518000e0040006300400086fc0700f0a0280081
:1025280080407800700320000e00400001487800c9
:10253800f0a0280080407800800320000e004000b2
:1025480001487800f0a0280080407800900320001f
:102558000e00400001487800000320000e004000f3
:10256800a1002000d7fc07006c0047001000be0047
:10257800e00f5000e08f580007003a00008020006c
:102588004100200040408800514088006000b800a9
:1025980060408800714088006c0047001001be0050
:1025a800f07f200001002000800f5100818f59002a
:1025b800070036006c0047001001be00f0ff210044
:1025c80001002000800f5100818f5900170036004c
:1025d8006c0047001001be00f07f200001002000c1
:1025e80002027800030178008001780081007800f9
:1025f8000300620081006100810578000005780011
:102608000a00be00e00f5000e08f580003003a00b7
:102618006c0047001000be0040fd070082802000cb
:102628006c0047001000be004bfd07006400470027
:102638001000be000020b0000180b0006401470017
:102648000089be00640047001001be006800470012
:102658001000be00800f5100818f59006bff3900b8
:102668000e80e8009000780000202000808f500045
:10267800010032002100370001c8bf000080fb00c4
:10268800c800dd0000c8bf000080fb0000804000db
:1026980021408000810f500004003200f10020002a
:1026a80010a1280087fc07001400370000802100d3
:1026b8000100200019fd0700204080006101b800da
:1026c80000002000a10a200002004000838048008a
:1026d800680147001202be000001be000080210010
:1026e8000100200047fd0700a100200010a22800db
:1026f80074fc07000000fe0002003700dcfd370014
:102708000000000000200400000000000000eb00b2
:102718004f06be004f05be004f04be000080fa0001
:0427280000000600a7
:020000040000fa
:10272c000000fe0082a22000001978000109780048
:10273c00000006000000fe000000eb008000eb0033
:10274c00f8ff07006627ef00000006000000fe00ff
:10275c000000fe00801f7800811f7800821f780027
:10276c0081a220001204800083e0a90031007800cf
:10277c00303b880011007800303b880061e7a800ee
:10278c00000000000000000061e7af00feff370012
:10279c0002f0a70083e0a8004f017800cf0078007a
:1027ac004f007800000006000000fe00a20280002e
:1027bc00a10288009080ba001000ba00a202880022
:1027cc00000006000000fe00a2028000a1028800aa
:1027dc001000ba00a2028800000006000000fe00f3
:1027ec00f27f20000001610008003a003200240052
:1027fc00023b8800103b8800213b8800b01302008c
:10280c00000000001000200061a7af0000002000b5
:10281c00000006000000fe0061e7af00feff37007d
:10282c000000a700130037000010a70011003700ac
:10283c00213b8800103b880010002400003b8800de
:10284c00a0028000a10f2000a1028800010020003e
:10285c008208bb008398bb008408bb008598bb0032
:10286c00b013020000000000a0028800100020003d
:10287c0061a7af0000002000000006000000fe0071
:10288c0061e7af00feff37000000a700140037001f
:10289c000010a70012003700213b8800103b880075
:1028ac00a102800010002400003b8800a00f200033
:1028bc00a0028800000020000208bb00f20f2000dc
:1028cc000298bb000308bb000298bb00b0130200c7
:1028dc0000000000a10288001000200061a7af00da
:1028ec0000002000000006000000fe0061e7af00c1
:1028fc00feff3700f30f20008081610012003a00c8
:10290c00103b8800213b8800a1028000a00f200012
:10291c00a002880020002400003b8800000020005a
:10292c00031020003208bb003298bb000018e100f5
:10293c00fcff3a00b013020000000000a102880066
:10294c001000200061a7af0000002000000006006e
:10295c000000fe0061e7af00feff3700f30f200020
:10296c008081610013003a00103b8800213b8800f5
:10297c00a1028000a00f2000a002880020002400eb
:10298c00003b88000000200003102000f40f200002
:10299c003208bb000498bb000018e100fcff3a00b1
:1029ac00b013020000000000a102880010002000fb
:1029bc0061a7af000000200000000600f27f20009d
:1029cc00000061000000060002802f000000610082
:0c29dc00f2ff2f008100610000000600e7
:020000040000fa
:1029e8000000fa0080002000701d8800b023ef006e
:1029f80070062000b01d8800b823ef00afe3a800e0
:102a0800b143a8000080fa00000006000000fa00a8
:102a180000000000801d8000610060000000e000f0
:102a2800fcff3200801d8000620060000000e000b2
:102a380001003200b023a900a01d800000407800ea
:102a48000080fa00000006000200fa00004f78003b
:102a580000000000811d8000002020000080600030
:102a68000000e000fbff3a001e80fb00901d88007c
:102a78000080fa00000006000000fa00801d8000b7
:102a880000407800614060000080fb0000f0a70073
:102a98000000ea000000ea004f00de000040780075
:102aa8000080fa00000006000000fa00811d800086
:102ab80000202000008060000000e00007003a00cd
:102ac800811d800000402000008060000000e000c0
:102ad8000200320010002000010037000000eb0067
:102ae800004078000080fa00000006000000fa00ac
:102af800801d80004800de00614060000080fb000f
:102b080000f0a7000000ea000000ea004f00de0025
:102b1800004078000080fa00000006000000fa007b
:102b2800801d80000080fa00000006000000fa0006
:102b3800afe3a800b143a8000080fa000000060037
:102b48000000fa00afe3a900b143a9000080fa0031
:102b5800000006000000fa009021ef000080eb0062
:102b6800900c880020212800a00c8800c0a220001a
:102b78008040eb00014878000080fa000000060061
:102b88000000fa0040048000680060000000e000d7
:102b980009003200d0a22000104078008040e800f0
:102ba800d0a2200001487800c0a2200011c0b300c4
:102bb800014878008860a9000080fa00000006003b
:102bc8000200fa00000f78009e007800910c88003f
:102bd800c0a220008040eb00014878000080fa0085
:102be800000006000000fa00900c80000080fa0047
:102bf800000006000200fa00000f78009e0078002e
:102c0800810c8800c0a220008040eb0001487800b9
:102c18000080fa00000006000000fa00800c800026
:102c28000080fa00000006000000fa00c0a22000a0
:102c38008040eb000148780095e1a8000080fa0088
:102c4800000006000000fa0095e1a9000080fa00e3
:102c5800000006000200fa00c0a22000104f780011
:102c68001e4078000004e00003003200c0a22000eb
:102c78008040eb00014878001e4078000080fa0090
:102c8800000006000000fa00d0a2200010407800e2
:102c98000080fb000080fa00000006000000fa0037
:102ca800d0a220008040eb00014878000080fa00a4
:102cb800000006000000fa006626ef004000200031
:102cc800d03388007001200010338800b0ff2f0037
:102cd800b03388007426ef008826ef007226ef00d4
:102ce8008626ef006826ef007c26ef0070002000a3
:102cf8005033880090202f00f033880001088000ae
:102d0800f00b2000008160006004200071052000a5
:102d180003102000804978008149780082497800b2
:102d2800b13e800000f82f00008060005000b30022
:102d3800b03e8800b13d800000fc2f00008060009c
:102d48000000a000b03d8800000880000001780065
:102d58000260a0006004200071052000031020001c
:102d68008049780081497800824978000080fa001b
:102d7800000006000000fa00000023001008880088
:102d88000621ef006821ef006a21ef000821ef001b
:102d980000702000500888000c21ef000e21ef0081
:102da8007821ef007a21ef007c21ef007e21ef00ef
:102db8008021ef008221ef008421ef008621ef00bf
:102dc8000001eb0080072000a1092000131020005b
:102dd8008049780081497800824978000001eb0039
:102de800600420007105200003102000804978004d
:102df80081497800824978000080fa0000000600c6
:020000040000fa
:102e0800280a00000400000082000000ffffff0005
:102e1800ff000000080a00002000000080000000f9
:102e2800060800000200000082000000ffff00000a
:102e38002c0a0000020000008000000008080000c2
:102e480000020000800000000008000006000000ea
:082e58008000000000000000f2
:020000040000fa
:102e6000f03fb1000180b10006003500ee0309001b
:102e700000000000403fb1000180b100fbff3d00b9
:102e80001000b000203fb0000200350000800900b3
:082e9000000000000000060034
:020000040000fa
:102e98000200fa00000f78009e0078003140880098
:102ea800ffff37000000fa0080a0200080077800ac
:102eb80000a22000000188000080fa00000006003f
:102ec8000000fa007bff070005000700a9ff0700c4
:102ed800c3fe07001fff07000080fa00000006007d
:0c2ee8000000fa000080fa000000060064
:020000040000fa
:020000040005f5
:045e0000ffffff00a1
:020000040000fa
:020000040005f5
:045e2000ffffff0081
:020000040000fa
:020000040005f5
:045e300078ffff00f8
:020000040000fa
:020000040005f5
:045e3800b7ffff00b1
:020000040000fa
:020000040005f5
:045e40009fffff00c1
:020000040000fa
:020000040005f5
:045e4800ffffff0059
:020000040000fa
:020000040005f5
:045e5000deffff0072
:020000040000fa
:020000040005f5
:045e5800ffffff0049
:00000001FF
