:020000040000fa
:080000000001040000000000f3
:020000040000fa
:0400080014020000de
:020000040000fa
:04000c005602000098
:020000040000fa
:040010009602000054
:020000040000fa
:0400140034020000b2
:020000040000fa
:04001800760200006c
:020000040000fa
:04001c00ce0300000f
:020000040000fa
:04002000ce0300000b
:020000040000fa
:04002400ce03000007
:020000040000fa
:04002800b003000021
:020000040000fa
:04002c00ce030000ff
:020000040000fa
:04003000ce030000fb
:020000040000fa
:040034004403000081
:020000040000fa
:04003800ce030000f3
:020000040000fa
:04003c00ce030000ef
:020000040000fa
:04004000ce030000eb
:020000040000fa
:040044007a0300003b
:020000040000fa
:04004800ce030000e3
:020000040000fa
:04004c00ce030000df
:020000040000fa
:04005000ce030000db
:020000040000fa
:04005400fe020000a8
:020000040000fa
:04005800b6020000ec
:020000040000fa
:04005c00ce030000cf
:020000040000fa
:04006000ce030000cb
:020000040000fa
:04006400ce030000c7
:020000040000fa
:04006800ce030000c3
:020000040000fa
:04006c00ce030000bf
:020000040000fa
:04007000ce030000bb
:020000040000fa
:04007400ce030000b7
:020000040000fa
:04007800ce030000b3
:020000040000fa
:04007c00ce030000af
:020000040000fa
:04008000ce030000ab
:020000040000fa
:04008400ce030000a7
:020000040000fa
:04008800ce030000a3
:020000040000fa
:04008c00ce0300009f
:020000040000fa
:04009000ce0300009b
:020000040000fa
:04009400ce03000097
:020000040000fa
:04009800ce03000093
:020000040000fa
:04009c00ce0300008f
:020000040000fa
:0400a000ce0300008b
:020000040000fa
:0400a400ce03000087
:020000040000fa
:0400a800ce03000083
:020000040000fa
:0400ac00ce0300007f
:020000040000fa
:0400b000ce0300007b
:020000040000fa
:0400b400ce03000077
:020000040000fa
:0400b800ce03000073
:020000040000fa
:0400bc00ce0300006f
:020000040000fa
:0400c000ce0300006b
:020000040000fa
:0400c400ce03000067
:020000040000fa
:0400c800ce03000063
:020000040000fa
:0400cc00ce0300005f
:020000040000fa
:0400d000ce0300005b
:020000040000fa
:0400d400ce03000057
:020000040000fa
:0400d800ce03000053
:020000040000fa
:0400dc00ce0300004f
:020000040000fa
:0400e000ce0300004b
:020000040000fa
:0400e400ce03000047
:020000040000fa
:0400e800ce03000043
:020000040000fa
:0400ec00ce0300003f
:020000040000fa
:0400f000ce0300003b
:020000040000fa
:0400f400ce03000037
:020000040000fa
:0400f800ce03000033
:020000040000fa
:0400fc00ce0300002f
:020000040000fa
:04010000ce0300002a
:020000040000fa
:04010400ce03000026
:020000040000fa
:04010800ce03000022
:020000040000fa
:04010c00ce0300001e
:020000040000fa
:04011000ce0300001a
:020000040000fa
:04011400ce03000016
:020000040000fa
:04011800ce03000012
:020000040000fa
:04011c00ce0300000e
:020000040000fa
:04012000ce0300000a
:020000040000fa
:04012400ce03000006
:020000040000fa
:04012800ce03000002
:020000040000fa
:04012c002e0300009e
:020000040000fa
:04013000ce030000fa
:020000040000fa
:04013400ce030000f6
:020000040000fa
:04013800ce030000f2
:020000040000fa
:04013c00ce030000ee
:020000040000fa
:04014000ce030000ea
:020000040000fa
:04014400ce030000e6
:020000040000fa
:04014800ce030000e2
:020000040000fa
:04014c00ce030000de
:020000040000fa
:04015000ce030000da
:020000040000fa
:04015400ce030000d6
:020000040000fa
:04015800ce030000d2
:020000040000fa
:04015c00ce030000ce
:020000040000fa
:04016000ce030000ca
:020000040000fa
:04016400ce030000c6
:020000040000fa
:04016800ce030000c2
:020000040000fa
:04016c00ce030000be
:020000040000fa
:04017000ce030000ba
:020000040000fa
:04017400ce030000b6
:020000040000fa
:04017800ce030000b2
:020000040000fa
:04017c00ce030000ae
:020000040000fa
:04018000ce030000aa
:020000040000fa
:04018400ce030000a6
:020000040000fa
:04018800ce030000a2
:020000040000fa
:04018c00ce0300009e
:020000040000fa
:04019000ce0300009a
:020000040000fa
:04019400ce03000096
:020000040000fa
:04019800ce03000092
:020000040000fa
:04019c00ce0300008e
:020000040000fa
:0401a000ce0300008a
:020000040000fa
:0401a400ce03000086
:020000040000fa
:0401a800ce03000082
:020000040000fa
:0401ac00ce0300007e
:020000040000fa
:0401b000ce0300007a
:020000040000fa
:0401b400ce03000076
:020000040000fa
:0401b800ce03000072
:020000040000fa
:0401bc00ce0300006e
:020000040000fa
:0401c000ce0300006a
:020000040000fa
:0401c400ce03000066
:020000040000fa
:0401c800ce03000062
:020000040000fa
:0401cc00ce0300005e
:020000040000fa
:0401d000ce0300005a
:020000040000fa
:0401d400ce03000056
:020000040000fa
:0401d800ce03000052
:020000040000fa
:0401dc00ce0300004e
:020000040000fa
:0401e000ce0300004a
:020000040000fa
:0401e400ce03000046
:020000040000fa
:0401e800ce03000042
:020000040000fa
:0401ec00ce0300003e
:020000040000fa
:0401f000ce0300003a
:020000040000fa
:0401f400ce03000036
:020000040000fa
:0401f800ce03000032
:020000040000fa
:0401fc00ce0300002e
:020000040000fa
:10020000cfaa20000e7f24000e018800000000000d
:10021000000020000000e000020032000001200089
:1002200020028800140007005e0107000000e000c3
:1002300003003a0040532200010020000200370072
:100240000000200001002000810f7000010032003a
:1002500014000700000020000000e000020032004f
:1002600000000200000000005a210200000000000f
:100270000040da000000fe004440a900c01d20003c
:100280000000e00003003200002020009001880000
:100290004440a800000006008a1f78008b1f7800e9
:1002a00000000600a1028800800478000000eb0036
:1002b0001f003700e284440054a0b4009905ba003e
:1002c000e284440054a0b4009906ba00e2844400d9
:1002d00054a0b4000006eb00476fde00fd07b2003b
:1002e000ae018800636ce10003003a00eaff0700fa
:1002f0000000eb000e003700606ce10008003a00df
:10030000004deb000a05e800020039003420ec0043
:100310000af0a0008b05e900f9ff3e000400370059
:100320006168e100010032000086eb000b0007006d
:1003300019c7ba001905ba000e04e00003003a001c
:100340000a00e000dbff3a0000000600fe07b200f2
:10035000ae0288008a047800f5ff37000cd0a300b5
:10036000e20f4d001c00390089027800354dba00bb
:100370000a05e800020039003420ec000af0a00071
:100380008b05e9000f003200254dba000a05e80090
:10039000020039003420ec000af0a0008b05e900cf
:1003a000080032000c00e0000600320015cdba0053
:1003b0000a05e800020039003420ec000af0a00031
:1003c0008b05e9008984e80054a0b4000b00e0002c
:1003d000e2ff3a00000006009902ba00055d7800cd
:1003e0008b05e900f7ff3200c82ade00055d7800c2
:1003f0008b05e900f3ff32000c00e000f1ff320052
:1004000019ddba00eeff3700dc1e0400000000001a
:10041000fa1e0400000000000c240400000000008c
:10042000c8240400000000003600f800809fbe00d1
:10043000829fbe00849fbe00869fbe000000fa001f
:100440008020a9000000eb00431207000080fa00a2
:100450004f03be004f02be004f01be004f00be0062
:100460003600f900004006003600f800809fbe000c
:10047000829fbe00849fbe00869fbe000000fa00df
:100480003a1207008040a900100020003212070035
:100490000080fa004f03be004f02be004f01be00b5
:1004a0004f00be003600f900004006003600f8009c
:1004b000809fbe00829fbe00849fbe00869fbe00bc
:1004c0000000fa008060a90020002000221207002e
:1004d0000080fa004f03be004f02be004f01be0075
:1004e0004f00be003600f900004006003600f8005c
:1004f000809fbe00829fbe00849fbe00869fbe007c
:100500000000fa008080a9003000200012120700cd
:100510000080fa004f03be004f02be004f01be0034
:100520004f00be003600f900004006003600f8001b
:10053000809fbe00829fbe00849fbe00869fbe003b
:100540000000fa008600a9007000200002120700d7
:100550000080fa004f03be004f02be004f01be00f4
:100560004f00be003600f900004006003600f800db
:10057000809fbe00829fbe00849fbe00869fbe00fb
:100580000000fa009980a9008980a900c08220009b
:10059000250c0700e30f500005003a002068ef002b
:1005a000c0822000260c07001b0e07000c0037003d
:1005b00020c8bf000004e00005003a0010c0b300ee
:1005c00020e8b700d0c0b300130e070004003700c6
:1005d0002068ef0051002000c0822000470c070077
:1005e0000080fa004f03be004f02be004f01be0064
:1005f0004f00be003600f900004006003600f8004b
:10060000809fbe00829fbe00849fbe00869fbe006a
:100610000000fa00210f07000004e0000200320091
:10062000af0d070004003700f50d0700804078008b
:1006300080882000390c07008960a9009960a80013
:100640000080fa004f03be004f02be004f01be0003
:100650004f00be003600f90000400600801f780001
:100660000000fa00d01c8000620060000000e00082
:10067000010032009a23a9009020a9000080fa000e
:100680004f007800004006003600f800809fbe0052
:10069000829fbe00849fbe00869fbe000000fa00bd
:1006a000404180000000e000020032004041800034
:1006b0000000010090aa2000104078008040e8006f
:1006c00090aa20000148780080aa200011c0b30041
:1006d000014878008860a9000080fa004f03be003e
:1006e0004f02be004f01be004f00be003600f900b1
:1006f000004006003600f800809fbe00829fbe00ca
:10070000849fbe00869fbe000000fa00504180001a
:100710000000e000020032005041800000000100b3
:10072000b0aa2000104078008040e800b0aa200065
:1007300001487800a0aa200011c0b3000148780049
:1007400088e0a9000080fa004f03be004f02be00ff
:100750004f01be004f00be003600f9000040060009
:100760003600f800809fbe00829fbe00849fbe00be
:10077000869fbe000000fa008e1107008800a900c5
:100780000080fa004f03be004f02be004f01be00c2
:100790004f00be003600f900004006000040da00bd
:1007a0000000fe00000005006022b80006022000e4
:1007b0000000d0008180d2000482d2008582d20065
:1007c0000000a0000202520083825a0003003100a0
:1007d0000202420083824a000000a1000603e900f1
:1007e000f3ff3a0000000600efff07000400be0020
:0407f00000000600ff
:020000040000fa
:1007f4002424000024240000003d0000004f0000d9
:100804004e0000004f460000460000005752000012
:1008140049540000450000005245000053450000c3
:10082400540000004745000054200000005300001d
:100834004554000020000000454e000054450000cf
:10084400525f000044410000544100005f4d00002d
:100854004f44000045000000424100005454000091
:1008640045520000595f00005354000041540000f9
:10087400555300000042000041540000545f000042
:10088400434f00004e460000494700003d4f000022
:100894004e200000313400003520000034310000c7
:1008a40035300000203100003530000030200000d9
:1008b4003135000030000000444500004550000080
:1008c4005f5300004c450000455000000045000007
:1008d4004e410000424c0000455f00004c450000c2
:1008e400440000004e4100004d4500003d4800001a
:1008f40065610000727400006265000061740000ac
:1009040052650000636f00007264000065720000ad
:1009140000530000544100005455000053000000ef
:1009240053540000415400004520000000540000ce
:10093400585f0000504f000057450000523d000032
:100944003420000038000000425400005f530000cf
:1009540054410000544500005f4300004f4e000026
:1009640046490000473d00003020000030000000f0
:10097400425400005f5300005441000054450000fd
:100984005f4300004f4e000046490000473d000011
:1009940031200000310000004155000044490000ae
:1009a4004f3d0000302000003000000041550000a1
:1009b400444900004f5f0000414e0000414c0000dc
:1009c4004f4700003d320000322000003135000066
:1009d40020320000204f00004e0000004341000080
:1009e4004c4c0000004300004c4f000053450000f5
:1009f4000052000045530000544f000052450000cf
:100a0400005000004f570000455200000045000010
:100a14004e410000424c0000455f0000424100008e
:100a2400545400005f4900004e44000000200000c0
:100a3400000d00000a0000003f00000046410000d5
:100a4400535400005f430000484100005247000037
:100a5400450000004e4f00005f5000004f5700005b
:100a64004552000000440000495300004142000088
:100a74004c4500004400000053540000414e000067
:100a84004442000059000000545200004943000051
:100a94004b4c0000455f00004348000041520000f9
:100aa4004745000000430000484100005247000051
:100ab400455f0000494e00005f500000524f0000a7
:100ac4004752000045530000530000004348000013
:100ad40041520000474500005f4300004f4d0000b5
:100ae400504c000045540000450000004f4b0000ee
:100af40000450000525200004f5200000052000016
:100b04006561000064790000004100003244000087
:100b1400505f00005354000052450000414d000056
:100b24005f53000054410000525400000043000091
:100b34004c4f0000534500005f4f00004b00000085
:100b4400524f00004c4500005f4f00004b00000076
:100b54004156000052430000505f0000504c00001a
:100b6400415900000041000056520000435000006b
:100b74005f50000041550000534500000053000041
:100b8400434f00005f4f0000504500004e0000003e
:100b9400534300004f5f0000434c00004f530000dc
:080ba4004500000020000000e4
:020000040000fa
:100bac000000fa00c20a07000080fa0000000600ec
:100bbc000000fa00c20a07000080fa0000000600dc
:100bcc000400fa00000f78001107980010c8bf004d
:100bdc000004e00092003a001e0090009f02070003
:100bec001e009000da070700815180001e00900063
:100bfc0042c0b3001f0207001e0078008000eb000b
:100c0c00b200200003002000820f5000838f580098
:100c1c0079003e00006001000b0037000f00370028
:100c2c0013003700170037001b0037001f00370078
:100c3c00230037002f0037003b00370047003700f8
:100c4c00530037005f003700e15180001e00900018
:100c5c0062c1b3000702070068003700b151800081
:100c6c001e00900002c2b3000202070063003700ae
:100c7c00215280001e00900032c1b300fd0107001c
:100c8c005e003700315280001e00900032c1b3006c
:100c9c00f801070059003700415280001e009000f7
:100cac0092c0b300f301070054003700515280008a
:100cbc001e00900072c1b300ee0107004f00370018
:100ccc00c15180001e009000a2c0b300e9010700d2
:100cdc00215180001e00900012c0b300e5010700f6
:100cec00315180001e00900022c0b300e1010700ca
:100cfc0042003700c15180001e009000a2c0b3001a
:100d0c00dc010700215180001e00900012c0b300ce
:100d1c00d8010700415180001e00900032c0b30082
:100d2c00d401070035003700d15180001e0090001f
:100d3c00a2c0b300cf010700215180001e0090001b
:100d4c0012c0b300cb010700315180001e0090008f
:100d5c0022c0b300c701070028003700d151800022
:100d6c001e009000a2c0b300c201070021518000f8
:100d7c001e00900012c0b300be010700415180005c
:100d8c001e00900032c0b300ba0107001b003700f0
:100d9c00a15280001e009000f2c0b300b501070004
:100dac00215180001e00900012c0b300b101070059
:100dbc00315180001e00900022c0b300ad0107002d
:100dcc000e003700a15280001e009000f2c0b3004c
:100ddc00a8010700215180001e00900012c0b30032
:100dec00a4010700415180001e00900032c0b300e6
:100dfc00a001070001003700000000001e00900059
:100e0c006c0707001e00900011002000412898007c
:100e1c0010c0b30010e8b70010c0b300ea07070019
:100e2c001e00900035020700e10f50000300320055
:100e3c00e30f50000900320004003700ea070700f6
:100e4c001068ef001000200005003700e6070700cf
:100e5c001068ef0020002000010037003000200057
:100e6c000080fa00000006000400fa00000f780071
:100e7c00110798000fc8bf000004e00061003a00a1
:100e8c001e009000f50107001e00900030070700bf
:100e9c00715180001e00900042c0b3007501070024
:100eac001e007800e30f500028003200e30f5000c2
:100ebc0005003e00e10f500014003200e10f50001d
:100ecc001a003e0009003700e50f50002f003200d9
:100edc00e50f500025003900e60f500033003200ba
:100eec00e70f50003900320040003700e15180001c
:100efc001e00900042c0b3005e0107001e0090006f
:100f0c00610020004128980038003700b151800062
:100f1c001e009000c2c0b300560107001e009000d6
:100f2c0051002000412898003000370021528000e9
:100f3c001e00900002c1b3004e0107001e0090007d
:100f4c007100200041289800280037004152800091
:100f5c001e00900062c0b300460107001e00900006
:100f6c009100200041289800200037005152800049
:100f7c001e009000d2c0b3003e0107001e0090007e
:100f8c00a10020004128980018003700c1518000b2
:100f9c001e009000a2c0b300360107001e00900096
:100fac00b10020004128980010003700d15180007a
:100fbc001e009000a2c0b3002e0107001e0090007e
:100fcc00810020004128980008003700a1528000c1
:100fdc001e009000f2c0b300260107001e00900016
:100fec00c100200041289800000000001e00900065
:100ffc00f006070010c0b3000fe8b70010c0b30034
:10100c00710707001e009000bc010700e10f5000a3
:10101c0003003200e30f50000900320004003700d7
:10102c00710707000f68ef00100020000500370063
:10103c006d0707000f68ef0020002000010037004b
:10104c00300020000080fa00000006000200fa00c8
:10105c00000f78000ec8bf000004e00011003a0039
:10106c001e0078007d0107001e007800b8060700fe
:10107c00115280001e007800c2c0b300fd000700b2
:10108c001e007800cb0607001e007800110020001f
:10109c004128980010c0b3000ee8b70010c0b30090
:1010ac00490707001e00780094010700e10f50006b
:1010bc0003003200e30f5000090032000400370037
:1010cc00490707000e68ef001000200005003700ec
:1010dc00450707000e68ef002000200001003700d4
:1010ec00300020000080fa00000006000200fa0028
:1010fc00000f78000dc8bf000004e00011003a009a
:10110c001e007800550107001e00780090060700ad
:10111c00a15180001e007800e2c0b300d50007008a
:10112c001e007800a30607001e0078004100200076
:10113c004128980010c0b3000de8b70010c0b300f0
:10114c00210707001e0078006c010700e10f50001a
:10115c0003003200e30f5000090032000400370096
:10116c00210707000d68ef00100020000500370074
:10117c001d0707000d68ef0020002000010037005c
:10118c00300020000080fa00000006000200fa0087
:10119c00000f78000cc8bf000004e00011003a00fa
:1011ac001e0078002d0107001e007800680607005d
:1011bc00f15180001e00780062c0b300ad00070042
:1011cc001e0078007b0607001e007800310020000e
:1011dc004128980010c0b3000ce8b70010c0b30051
:1011ec00f90607001e00780044010700e10f5000cb
:1011fc0003003200e30f50000900320004003700f6
:10120c00f90607000c68ef001000200005003700fd
:10121c00f50607000c68ef002000200001003700e5
:10122c00300020000080fa00000006000200fa00e6
:10123c00000f78000bc8bf000004e00011003a005a
:10124c001e007800050107001e007800400607000c
:10125c00515180001e00780052c0b3008500070079
:10126c001e007800530607001e00780011002000b5
:10127c004128980010c0b3000be8b70010c0b300b1
:10128c00d10607001e0078001c010700e10f50007a
:10129c0003003200e30f5000090032000400370055
:1012ac00d10607000b68ef00100020000500370086
:1012bc00cd0607000b68ef0020002000010037006e
:1012cc00300020000080fa00000006000400fa0044
:1012dc00000f7800110798000ac8bf000004e00056
:1012ec0021003a001e009000dc0007001e00900058
:1012fc0017060700915280001e00900052c0b300e8
:10130c005c000700b15280001e00900012c0b300b8
:10131c00580007001e007800e20f500005003a004c
:10132c00415180001e00900032c0b30051000700f4
:10133c0004003700315180001e00900022c0b30021
:10134c004c0007001e0090001a0607001e009000bb
:10135c00110020004128980010c0b3000ae8b70023
:10136c0010c0b300980607001e009000e3000700b1
:10137c00e10f500003003200e30f5000090032006f
:10138c0004003700980607000a68ef0010002000e0
:10139c0005003700940607000a68ef0020002000c3
:1013ac0001003700300020000080fa000000060029
:1013bc000200fa00000f780009c8bf000004e0002a
:1013cc0011003a001e007800a40007001e007800ef
:1013dc00df050700615180001e00780052c0b30089
:1013ec00240007001e007800f20507001e0078009c
:1013fc00210020004128980010c0b30009e8b70074
:10140c0010c0b300700607001e007800bb00070078
:10141c00e10f500003003200e30f500009003200ce
:10142c0004003700700607000968ef001000200068
:10143c00050037006c0607000968ef00200020004b
:10144c0001003700300020000080fa000000060088
:10145c000200fa00000f78001e0078007f000700e1
:10146c00c10520001e804000940107000080fa0096
:10147c00000006000800fa001007980021079800e9
:10148c00624798000040eb00004f78001e0090006f
:10149c0050289000e10f500023003a001e009000ed
:1014ac0021002000512898000040eb00004f7800ec
:1014bc000c0037009e80fb001e00900000d09000b6
:1014cc000000fb00008040009e80fb002e0190007d
:1014dc0081004100114178009e00900082707800dc
:1014ec001e4fe8006e4090009e40780080cf500068
:1014fc00f0ff39001e00900000d090008040780072
:10150c006e40900000c04000804078001e009000ab
:10151c0001d098001e009000110020005128980066
:10152c001000200001003700200020000080fa008d
:10153c00000006000400fa001007980010002000bc
:10154c00000f78001e00900010d090008040e80042
:10155c001e00900011d098001e00900010d090003a
:10156c00f14f500002003a0030002000000f7800cc
:10157c001e00900090d090001e00900000d09000b3
:10158c0080cf500002003d003000200009003700e1
:10159c001e00900090d090001e00900000d0900093
:1015ac0080cf500002003a001000200001003700ec
:1015bc00200020000080fa00000006000200fa0063
:1015cc00000f78001e00780010d090000000fb0087
:1015dc009e007800614078000080fa000000060050
:1015ec000200fa00000f78001e00780030289000ee
:1015fc000080fa00000006000400fa00000f7800da
:10160c00110798001e0078009e0090003128980069
:10161c00100020000080fa00000006000400fa0010
:10162c00000f7800110798001e0078009e009000b3
:10163c0021289800100020000080fa00000006000d
:10164c000200fa00000f78001e007800030007006b
:10165c001e0078000080fa00000006000400fa006a
:10166c00100798001e0090002100200051289800bf
:10167c001e0090008040eb0001d098000040eb0071
:10168c00004f7800050037001e80fb009e00900084
:10169c000041eb00827078001e4fe800f0c4b300ec
:1016ac009e40780080cf5000f7ff36001e0090005f
:1016bc008040eb0011d098001e009000110020001b
:1016cc00112898001e00900011002000212898007d
:1016dc001e0090008000eb00412898001e00900036
:1016ec0011002000312898001e00900011002000ed
:1016fc00512898000080fa00000006000200fa0051
:10170c00000f780008c8bf000080fb000000e0005c
:10171c0003003200e10f5000220032003b00370082
:10172c00bf0507000004e0001b003a001e00780013
:10173c003a000700e10f500003003200e30f5000a5
:10174c00130032000e00370008c8bf000040e8004c
:10175c0008e8b7001e00780030989100e20f5000a6
:10176c0003003a0050c0b300970507000200370091
:10177c0010c0b3009405070030002000250037008e
:10178c00990507000868ef002000200021003700b1
:10179c00300020001f0037000868ef0020002000f8
:1017ac001c0037009e0507000004e00012003a0000
:1017bc001e00780049000700e10f500003003200c2
:1017cc00e30f50000a003200040037000868ef00f5
:1017dc0085050700100020000e0037000868ef0098
:1017ec001e007800a600070020002000090037002a
:1017fc0030002000070037000868ef001e0078005a
:10180c009f00070020002000020037000868ef004e
:10181c00200020000080fa00000006000200fa0000
:10182c00000f78001e00780030289000e30f500065
:10183c0027003a001e00780020289000e40f50008a
:10184c001d003200e50f50001d003200e30f500068
:10185c001d003a001e00780010d090000004e0003b
:10186c0013003a005e0707000004e000100032008d
:10187c001e007800c02890001e0078003198990056
:10188c001e00780041002000212898001e007800de
:10189c003100200011289800550707001e00780021
:1018ac00104078005707070030002000090037006f
:1018bc002000200007003700300020000500370012
:1018cc00100020000300370020002000010037002a
:1018dc00200020000080fa00000006000200fa0040
:1018ec00000f7800c10520001e8040009e0078008b
:1018fc002b000700e10f500005003a00c105200045
:10190c001e8040006d0007001000200022003700f0
:10191c00210b20001e8040009e0078002000070054
:10192c00e10f500005003a00c10520001e80400068
:10193c006200070010002000170037008110200003
:10194c001e8040009e00780015000700e10f50003b
:10195c0005003a00c10520001e804000570007001a
:10196c00100020000c003700e11520001e80400004
:10197c009e0078000a000700e10f500005003a00b5
:10198c00c10520001e8040004c0007001000200004
:10199c0001003700300020000080fa000000060033
:1019ac000400fa00000f7800110798001e00900048
:1019bc0040289000e40f50001e003200e40f50004d
:1019cc0007003e00e20f500011003200e20f500001
:1019dc0014003e00e10f50000800320025003700d3
:1019ec00e60f50001b003200e60f500015003900c6
:1019fc00e70f50001b0032001e00370050538000d0
:101a0c00800078001e007800980107001a0037004b
:101a1c0080538000800078001e007800930107003e
:101a2c00150037009e0090001e007800ad010700e5
:101a3c00110037009e0090001e0078001202070073
:101a4c000d0037009e0090001e007800ac020700cd
:101a5c00090037009e0090001e0078005903070013
:101a6c00050037009e0090001e007800260307003a
:101a7c0001003700200020000080fa000000060062
:101a8c000200fa00000f7800d70407001e0078004f
:101a9c008000eb00412898000080fa00000006004e
:101aac000200fa00000f78001e0078000300070007
:101abc001e0078000080fa00000006000200fa0008
:101acc00000f78001e00780021002000612899008a
:101adc001e0078008040eb0001d89a001e007800b0
:101aec0026000700610520001e804000230007002f
:101afc00c10a20001e804000200007002110200099
:101b0c001e8040001d0007001e0078008000eb00c6
:101b1c00512899001e0078001100200061289900be
:101b2c001e00780011002000612899000080fa0046
:101b3c00000006000600fa001007980041479800c4
:101b4c000040eb00004f7800060037001e80fb00c1
:101b5c009e009000008040008040eb00014878001f
:101b6c001e4fe8004e4090009e40780080cf500001
:101b7c00f6ff39000080fa00000006000200fa00af
:101b8c00000f78001e00780021002000212898000a
:101b9c001e00780011002000112898001e0078000b
:101bac008040eb0001d098001e00780001c5b30006
:101bbc00e0ff07001e00780011002000212898008b
:101bcc000080fa00000006000200fa00000f780006
:101bdc001e007800502891000080fa0000000600da
:101bec000200fa00000f78001e0078008000eb0065
:101bfc00512899000080fa00000006000400fa0049
:101c0c00000f7800214798002e4090000080fb00c8
:101c1c00e10f50000d003200e10f500003003c00ba
:101c2c000000e0000600320011003700e20f500007
:101c3c0009003200e30f50000a0032000c0037009c
:101c4c001e007800102890000a0037001e00780053
:101c5c0040909000070037001e00780070b890008c
:101c6c00040037001e007800202891000100370086
:101c7c000000eb000080fa00000006000400fa00ef
:101c8c00000f7800214798002e4090000080fb0048
:101c9c00e10f50000d003200e10f500003003c003a
:101cac000000e0000600320011003700e20f500087
:101cbc0009003200e30f50000a0032000c0037001c
:101ccc001e007800202890000a0037001e007800c3
:101cdc0050909000070037001e0078000000910023
:101cec00040037001e0078003028910001003700f6
:101cfc000000eb000080fa00000006000600fa006d
:101d0c0010079800414798000000eb00000f780086
:101d1c001e00900000d892000000fb00e20f500063
:101d2c000f003200e30f500013003200e10f50009f
:101d3c00050032001e009000ce40900043000700ca
:101d4c00000f7800120037001e0090006005b000f4
:101d5c00ce4090003d000700000f78000c003700cb
:101d6c001e009000c00ab000ce4090003700070063
:101d7c00000f7800060037001e0090002010b00005
:101d8c00ce40900031000700000f780000000000ea
:101d9c001e007800e70f50002a003a001e00900049
:101dac0000d892008040e8001e00900001d89a00f4
:101dbc001e00900000d89200e34f50000300340046
:101dcc001e0090008040eb0001d89a001e0090008d
:101ddc0000d892000000fb00e10f50000d00320013
:101dec00e10f500003003c000000e0000600320050
:101dfc0014003700e20f50000a003200e30f5000cd
:101e0c000c0032000f0037001e0090005bff070033
:101e1c000c0037001e0090006005b00057ff070053
:101e2c00080037001e009000c00ab00053ff0700e6
:101e3c00040037001e0090002010b0004fff070078
:101e4c00000000000080fa00000006000400fa0008
:101e5c00000f7800214798001e0078001028900091
:101e6c00e60f5000040032001e007800102890008d
:101e7c00e10f500027003a00ae409000a0c7b3001d
:101e8c0080cf500023003e002e409000ed4f5000bc
:101e9c000b003a001e00780000d090000004e00017
:101eac001c0032001e0078007100200011289800e0
:101ebc001e00780011002000212898001500370022
:101ecc001e00780000d090000000fb002e41900016
:101edc009e007800827078001e007800610020005f
:101eec00112898001e00780000d090008040e80077
:101efc001e00780001d098001e00780080d0900061
:101f0c00f0c4b30080cf5000020034001e007800f3
:101f1c001aff07001e007800102890000080fa00bd
:101f2c00000006000200fa00000f78001e00780086
:101f3c0010289000e70f50000c003a001e007800ab
:101f4c0020289000e10f500008003a001e00780095
:101f5c0021002000212898001e0078009e007800a7
:101f6c003a0007001e00780004ff07001e007800ee
:101f7c0040909000e70f50000e003a001e007800d1
:101f8c0050909000e10f50000a003a001e007800bb
:101f9c002100200051909800610520001e80400017
:101fac009e00780029000700610520001e8040007b
:101fbc00f2fe07001e00780070b89000e70f50008a
:101fcc000e003a001e00780000009100e10f500056
:101fdc000a003a001e007800210020000100990040
:101fec00c10a20001e8040009e00780017000700e8
:101ffc00c10a20001e804000e0fe07001e00780091
:10200c0020289100e70f50000e003a001e007800c7
:10201c0030289100e10f50000a003a001e007800b1
:10202c002100200031289900211020001e80400042
:10203c009e00780005000700211020001e80400043
:10204c00cefe07000080fa00000006000600fa0031
:10205c00100798002107980010002000000f78004e
:10206c001e0078000080fa00000006000600fa004e
:10207c00100798002107980030002000000f78000e
:10208c001e00900010289000e70f500012003a003c
:10209c001e00900020289000e20f50000e0032002d
:1020ac001e00900021002000212898001e009000a6
:1020bc0000d09000804178000041eb00ae00900011
:1020cc001e009000e0010700000f78001e00900039
:1020dc0011002000212898001e0078000080fa00d2
:1020ec00000006000800fa0020079800310798004d
:1020fc0030002000000f780000c1b300204798008a
:10210c002e00900010289000e70f50005b003a0062
:10211c002e00900020289000e20f50005700320053
:10212c002e009000210020002128980000528000f1
:10213c0063c0b3000041eb00800078002e009000db
:10214c00c1010700000f78001e007800e10f50005d
:10215c0047003a004051800033c0b30062c0b30066
:10216c00800078002e009000b7010700e10f5000ae
:10217c000d003a003e0090008000eb0071a0990029
:10218c003e0090008000eb0001a899003e009000fa
:10219c008000eb0011a899003e0090008000eb003d
:1021ac0021a89900320037003e0090001100200059
:1021bc0071a099002e4090000080fb00ae009000b2
:1021cc00614078000000fb000003b1008000780043
:1021dc003e00900001a899002e4090006f404000f6
:1021ec00204798003051800023c0b3002e4190004e
:1021fc00800078002e00900093010700e10f500042
:10220c0007003a003e0090008000eb0011a89900f6
:10221c002e40900071404000204798000500370088
:10222c003e0090001100200011a8990020c1b300bd
:10223c00204798003051800023c0b3002e419000fd
:10224c00800078002e0090007f010700e10f500005
:10225c0004003a003e0090008000eb0021a8990099
:10226c00030037003e0090001100200021a89900c7
:10227c002e00900011002000212898001e007800ec
:10228c000080fa00000006000800fa002007980001
:10229c003107980030002000000f78000040eb0060
:1022ac00204798002e00900010289000e70f500057
:1022bc0090003a002e00900020289000e20f500071
:1022cc008c0032002e009000210020002128980064
:1022dc0010002000000f7800a0518000e3c0b30074
:1022ec000041eb00800078002e00900056010700a2
:1022fc00e10f50007a003a003e009000c11b200014
:10230c00808040002e00900000d09000644050006f
:10231c008101780042c0b300804078002e0090000c
:10232c008a010700e10f50006a003a002e0090006d
:10233c0000d0900074405000204798002e40900030
:10234c00eb4f500012003a00e0528000b3c0b300d3
:10235c00f2c0b300800078002e0090003a01070014
:10236c00e10f50000600320020002000000f780022
:10237c003e0090008000eb00719899005a003700e5
:10238c003e00900011002000719899005600370013
:10239c002e409000e84f50001e003a00f052800092
:1023ac0083c0b300f2c0b300800078002e00900010
:1023bc0025010700e10f500012003200005380008d
:1023cc0083c0b300f2c0b300800078002e009000f0
:1023dc001d010700e10f5000060032002000200014
:1023ec00000f78003e0090008000eb00719899007f
:1023fc003d0037003e00900051002000719899007c
:10240c00390037003e00900021002000719899009f
:10241c00350037002e409000e74f500012003a0074
:10242c001053800073c0b300f2c0b300800078007a
:10243c002e00900004010700e10f5000060032004e
:10244c0020002000000f78003e0090008000eb0080
:10245c0071989900240037003e0090003100200054
:10246c0071989900200037002e409000ee4f5000dc
:10247c0012003a0020538000e3c0b300f2c0b30056
:10248c00800078002e009000ef000700e10f500054
:10249c000600320020002000000f78003e00900063
:1024ac008000eb00719899000f0037003e009000ff
:1024bc0041002000719899000b003700200020008b
:1024cc00000f78003e0090008000eb00719899009e
:1024dc000500370020002000000f780002003700b4
:1024ec0020002000000f78002e009000110020002a
:1024fc00212898001e0078000080fa0000000600d9
:10250c000600fa001007980021079800f0c0b300ed
:10251c00004f78000040eb00104798001e00900020
:10252c0010289000e70f500074003a001e00900035
:10253c0020289000e20f5000700032001e00900026
:10254c002100200021289800b0518000e3c0b30086
:10255c000041eb00800078001e009000ba000700dc
:10256c00e10f500062003a003051800023c0b300ec
:10257c001e417800800078001e009000b200070019
:10258c00e10f500006003a002e00900011002000d0
:10259c0001a099009e40780063cf400005003700f1
:1025ac002e0090008000eb0001a099009e40780066
:1025bc0064cf40001e00900000d0900000417800d5
:1025cc009e4078001e009000bd0007001047980048
:1025dc002e009000201cb000800178001e4190005d
:1025ec009e4078001e009000d8000700e10f5000bc
:1025fc003f003a001e4090001e404000004fe80093
:10260c001e00900000d09000004178009e407800a1
:10261c001e009000aa000700104798002e009000a2
:10262c00401cb000800178001e4190009e40780054
:10263c001e009000c5000700e10f50002c003a006e
:10264c001e4090001e404000004fe8001e0090000d
:10265c0000d09000004178009e4078001e00900051
:10266c0097000700104798002e009000601cb000e7
:10267c00800178001e4190009e4078001e00900062
:10268c00b2000700e10f500019003a001e00900044
:10269c0000d09000804078001e4090001e4040000a
:1026ac0000c0ea0000cf40002e009000811c2000ea
:1026bc00808040001e00900000d090001e40500012
:1026cc0081017800004178009e4078001e00900047
:1026dc009e000700e10f500005003a001e0090001c
:1026ec001100200021289800100020000400370061
:1026fc001e009000110020002128980020002000ce
:10270c000080fa00000006000400fa00000f7800b8
:10271c00110798001e00780010289000e70f500059
:10272c0025003a001e00780020289000e20f50008f
:10273c00210032001e007800210020002128980082
:10274c002052800003c1b3000041eb0080007800f0
:10275c001e0078003c000700e10f500013003a0007
:10276c001e007800105090000000fb000003b10028
:10277c00800078001e00900061a899001e0078006f
:10278c00305090000000fb000003b1008000780086
:10279c001e00900071a899001e0078001100200006
:1027ac002128980010002000040037001e0078003b
:1027bc001100200021289800200020000080fa0041
:1027cc00000006000400fa00000f780011079800c2
:1027dc001e00780010289000e70f500017003a00f8
:1027ec001e00780020289000e20f500013003200e9
:1027fc001e0078002100200021289800e051800064
:10280c0063c1b3000041eb00800078001e0078002b
:10281c000d000700e10f500005003a001e00780083
:10282c00110020002128980010002000040037001f
:10283c001e007800110020002128980020002000a4
:10284c000080fa00000006000800fa00100798004b
:10285c002107980062479800734798000040eb00ee
:10286c00004f78000f0037009e80fb006e409000f8
:10287c000080fb00008040009e009000e14078004a
:10288c001e80fb002e0190000000410010407800db
:10289c0080cf5000020032002000200006003700dc
:1028ac001e4fe8007e4090009e40780080cf500084
:1028bc00edff3900100020000080fa000000060037
:1028cc000600fa00100798004147980052479800fc
:1028dc000040eb0010479800ce409000014f78006c
:1028ec000f0037001e80fb009e00900061407800b6
:1028fc000000fb0080007800405d2800808f5000b5
:10290c00050032001e4090000040e800104798007f
:10291c001e4fe800020037001e40900009003700ef
:10292c009e80fb005e4090000081fb004e409000ba
:10293c000080fb0000005100808f5000e9ff350043
:10294c000040eb000080fa00000006000e00fa00c8
:10295c0040079800214f9800324f98006307980069
:10296c000040eb00004f78000000eb0030079800af
:10297c000000eb00100798001000200020079800c2
:10298c000040eb00004f7800280037002e489000e4
:10299c000080fb008000e9003e4890000081fb00b5
:1029ac001e80fb000000510000804000ce00900013
:1029bc00614078000000fb0030079800be009000da
:1029cc00f0022000808f500016003600be009000f0
:1029dc0090032000808f500012003e003e009000bb
:1029ec000003b10030079800be0090002e0090004c
:1029fc000088b90000007800300798009e00900015
:102a0c003e00900000804000100798002e009000bf
:102a1c006a00b90000007800200798001e4fe800fb
:102a2c000200370020002000080037003e489000cc
:102a3c009e40780080cf5000d4ff39006e0090008b
:102a4c009e00900001087800100020000080fa0021
:102a5c00000006000c00fa00881f78003007980070
:102a6c0041079800520798000040eb00104798006f
:102a7c003e019000ce0190001207980023079800a9
:102a8c000a0037001e009000ae009000a20020004b
:102a9c000300200041f70700100798002107980059
:102aac001e4090000040e800104798001e00900067
:102abc00ae009000e00f5000e08f5800f1ff3a009c
:102acc001e4090000004e00003003a001e409000fd
:102adc000040e800104798009e419000034f78009a
:102aec00140037001e80fb000000e900de0090009f
:102afc00008440003e009000ce009000a200200018
:102b0c000300200035f70700004078000043b000b8
:102b1c00004c78003e009000ce009000a2002000f7
:102b2c00030020001df707003007980041079800ac
:102b3c001e4fe9001e4078000004e000e9ff3a0057
:102b4c001e4090004f0478000080fa000000060040
:102b5c000200fa00000f78001e007800a0fa0700af
:102b6c00e10f500002003200200020000f0037005f
:102b7c00310020001e0078009ffa0700e10f500082
:102b8c000200320020002000080037002100200045
:102b9c001e007800a1fa0700e10f5000020032007d
:102bac002000200001003700100020000080fa00f7
:102bbc00000006000200fa00000f7800310020002f
:102bcc001e00780095fa0700e10f50000200320059
:102bdc002000200001003700100020000080fa00c7
:102bec00000006000a00fa00200798003107980040
:102bfc00024f98000040eb00104798000040eb009b
:102c0c00204798000040eb00004f78006700370029
:102c1c000040eb00304798001e80fb00ae00900097
:102c2c000080400090407800f0c2b30080cf50008c
:102c3c002b0034001e80fb00ae0090000080400092
:102c4c009040780090c3b30080cf500003003c004c
:102c5c0000c3b30030479800210037001e80fb00f2
:102c6c00ae009000008040009040780000c4b3009b
:102c7c0080cf50001a0034001e80fb00ae00900084
:102c8c000080400090407800a0c5b30080cf500079
:102c9c0003003c0070c3b3003047980010003700ad
:102cac001e80fb00ae009000008040009040780039
:102cbc0000c6b30080cf5000090034001e80fb001a
:102ccc00ae0090000080400090407800a0c7b30098
:102cdc0080cf500002003c0070c5b3003047980014
:102cec003e4090000004e0002f0032001e40900097
:102cfc000004e0000f003a002e4090000080fb0022
:102d0c00be009000008040009e80fb002e019000d1
:102d1c00810041009140780001417800be40900054
:102d2c0001415100410020008110dd000148780074
:102d3c00120037002e4090000080fb00be00900077
:102d4c0000804000ae4090008180fb003e0190006e
:102d5c0081004100114178009e80fb00ae01900083
:102d6c00818041009140780081417800be40900004
:102d7c0081c0510081404100014878001e40900004
:102d8c000004e000060032000040eb001047980001
:102d9c002e4090000040e8002047980002003700c9
:102dac0010c0b300104798001e4fe8000e4890006a
:102dbc009e40780080cf500095ff39001000200015
:102dcc000080fa00000006000200fa00004f7800b4
:102ddc001e407800340007003d0007002a00070061
:102dec000080fa00000006000000fa002a0007002c
:102dfc00370007000080fa00000006000000fa000f
:102e0c0010c0b30004e8b7000080fa000000060010
:102e1c000000fa000468ef000080fa0000000600d1
:102e2c000000fa0004c8bf000080fa000000060091
:102e3c000000fa0010c0b30007e8b7000080fa00e9
:102e4c00000006000000fa000768ef000080fa009e
:102e5c00000006000000fa0007c8bf000080fa005e
:102e6c00000006000000fa00c4070700431f200002
:102e7c000001eb0041012000c0a12000260007004a
:102e8c000080fa00000006000000fa006b06070044
:102e9c000080fa00000006000000fa006f06070030
:102eac000080fa00000006000200fa00004f7800d3
:102ebc001e407800250607000080fa00000006007e
:102ecc000000fa00cdff07000080fa0000000600a9
:102edc000000fa00ceff07000080fa000000060098
:102eec000200fa00004f78001e407800b6ff070081
:102efc000080fa00000006000000fa00baff07008c
:102f0c000080fa00000006000000fa00c4ff070071
:102f1c000080fa00000006000800fa00000f78009c
:102f2c001107980022079800330798001e007800bc
:102f3c009e009000010878001e007800ae00900002
:102f4c00210098001e007800be009000110098002f
:102f5c000080fa00000006000000fa009a06070044
:102f6c000080fa00000006000000fa009e06070030
:102f7c000080fa00000006000000fa005506070069
:102f8c000080fa00000006000200fa00000f780032
:102f9c001e007800100078000000e0000d003200e8
:102fac001e007800100078008000e9001e007800f8
:102fbc00010878001e007800100078000000e00086
:102fcc0002003a0010c0b300030037000040eb00d1
:102fdc000100370010c0b3000080fa0000000600aa
:102fec000000fa009800a8000080fa00000006001b
:102ffc000000fa009800a9000080fa00000006000a
:10300c000400fa00000f7800110798001e007800e9
:10301c009e009000010878000080fa000000060075
:10302c000200fa00000f78001e0078008000eb0010
:10303c00010878000080fa00000006000200fa0087
:10304c00000f78001e007800100078000080fa0055
:10305c00000006000000fa0075ff07000080fa006f
:10306c00000006000000fa0076ff07000080fa005e
:10307c00000006000000fa0076ff07000080fa004e
:10308c00000006000400fa00000f780011079800f9
:10309c001e0078009e009000110098000080fa003d
:1030ac00000006000200fa00000f78001e007800f5
:1030bc008000eb00110098000080fa000000060070
:1030cc000200fa00000f78001e007800100090003b
:1030dc000080fa00000006000000fa00c0338000f7
:1030ec004800de00614060000080fa00000006002d
:1030fc000000fa007b06a9000080fa000000060020
:10310c000000fa007b06a8000080fa000000060010
:10311c000200fa00000f78001e00780010089000e2
:10312c000080fa00000006000400fa00000f78008e
:10313c00110798001e0078009e009000110898005e
:10314c000080fa00000006000200fa00000f780070
:10315c001e007800100090000080fa0000000600ad
:10316c000200fa00000f78001e00780010007800b2
:10317c000080fa00000006000200fa00000f780040
:10318c001e00780010089000e10f50005d003a001e
:10319c001e00780010009000e30f50004d0032002c
:1031ac00e30f500003003e00e10f50003d003200e1
:1031bc0002003700e50f50001d0036001e0078009d
:1031cc0090007800f0c72000808f50000c003e006b
:1031dc001e007800200890000000e000040032007f
:1031ec00910020001e0078007a0007007100370063
:1031fc00510020001e007800760007006d0037009b
:10320c001e007800200890000000e000040032004e
:10321c00810020001e0078006e000700650037005a
:10322c00410020001e0078006a0007006100370092
:10323c00809e2000caff070011fd2000810f500066
:10324c000c003e001e007800200890000000e000fa
:10325c0004003200a10020001e0078005d00070071
:10326c0054003700610020001e0078005900070050
:10327c00500037001e007800200890000000e0008d
:10328c0004003200b10020001e007800510007003d
:10329c0048003700710020001e0078004d00070028
:1032ac00440037001e007800200890000000e00069
:1032bc0004003200a10020001e0078004500070029
:1032cc003c003700610020001e0078004100070020
:1032dc00380037001e007800200890000000e00045
:1032ec0004003200b10020001e00780039000700f5
:1032fc0030003700710020001e00780035000700f8
:10330c002c0037001e007800100890000000e00030
:10331c0025003a001e00780010009000e30f5000ca
:10332c001d003200e30f500003003e00e10f50007f
:10333c001400320002003700e50f50000400360084
:10334c008000eb001e0078002200070019003700f7
:10335c00809e200082ff070011fd2000810f50008d
:10336c0004003e00110020001e0078001900070028
:10337c0010003700210020001e0078001500070007
:10338c000c003700110020001e007800110007000f
:10339c000000000007003700210020001e0078000c
:1033ac000c00070003003700310020001e007800dd
:1033bc00080007000080fa00000006000200fa0076
:1033cc00000f78001e007800001890000080fa00b2
:1033dc00000006000400fa00000f780011079800a6
:1033ec001e0078009e009000011898000080fa00e2
:1033fc00000006000200fa00000f78001e007800a2
:10340c00101890000080fa00000006000400fa007a
:10341c00000f7800110798001e0078009e009000a5
:10342c00111898000080fa00000006000000fa0055
:10343c007ba6a8007bc6a8007be6a8000080fa004b
:10344c00000006000000fa007ba6a9007bc6a800bd
:10345c007be6a8000080fa00000006000000fa00dd
:10346c007ba6a8007bc6a9007be6a8000080fa001a
:10347c00000006000000fa007ba6a8007bc6a8008e
:10348c007be6a9000080fa00000006000000fa00ac
:10349c007ba6a8007bc6a8007be6a8000080fa00eb
:1034ac00000006000000fa00c03380004d00de0072
:1034bc00614060000080fa00000006000000fa0085
:1034cc00c03380004e00de00614060000080fa00d6
:1034dc00000006000000fa00c03380004f00de0040
:1034ec00004078000080fa00000006000800fa0096
:1034fc00000f7800110798002207980033079800f6
:10350c0024c8bf000004e0001c003a003e009000fc
:10351c00200090000000e00021003a001e0078001e
:10352c00e20f500006003200e30f5000060032009c
:10353c00e10f500006003a00ceff070006003700ee
:10354c00c0ff070004003700c4ff0700020037006b
:10355c00ceff0700000000003e0090009e0090008f
:10356c00210098002e0090000000e0000c003200ba
:10357c0010c0b30024e8b700090037003e009000eb
:10358c00200090000000e00005003a00bfff07009b
:10359c003e009000ae009000210098002468ef00df
:1035ac000080fa00000006000000fa000080fa001b
:1035bc00000006000000fa000080fa00000006007f
:1035cc000000fa0076f507000080fa000000060003
:1035dc000000fa0076f507000080fa0000000600f3
:1035ec000000fa001b0207000080fa000000060031
:1035fc000000fa008980a9009980a8000080fa00d8
:10360c00000006000200fa00004f78001e4078000f
:10361c00fe0107000080fa00000006000200fa001c
:10362c00000f78001e007800c2f707000080fa0037
:10363c00000006000200fa00000f78001e0078005f
:10364c00def707000080fa00000006000000fa0018
:10365c0010c0b30023e8b7000080fa000000060099
:10366c000000fa0023c8bf000080fa00000006002a
:10367c000000fa002368ef000080fa00000006004a
:10368c000000fa002268ef000080fa00000006003b
:10369c000000fa002268ef000080fa00000006002b
:1036ac000000fa0022c8bf000080fa0000000600eb
:1036bc000000fa00e40207000080fa000000060097
:1036cc000000fa00e60207000080fa000000060085
:1036dc000000fa00e60207000080fa000000060075
:1036ec000000fa00e60207000080fa000000060065
:1036fc000400fa00000f7800110798009e0090005b
:10370c001e007800c5f707000080fa0000000600d4
:10371c000400fa00000f780021479800ae4090009a
:10372c001e00780075f907000080fa000000060002
:10373c000200fa00000f78001e007800f9f907006b
:10374c000080fa00000006000c00fa004007980008
:10375c00214f98000040eb00204798000000eb0040
:10376c00200798002000200030079800c08220001d
:10377c0037f70700bb0037004e0090008000eb00cd
:10378c009201200003002000820f5000838f58000c
:10379c0099003e0000600100190037001d00370041
:1037ac002100370025003700290037002d00370095
:1037bc003100370035003700390037003d00370045
:1037cc004100370045003700490037004d003700f5
:1037dc005100370055003700590037005d003700a5
:1037ec006100370065003700690037006c00370056
:1037fc006f00370072003700750037007900370012
:10380c00c18220000000eb00edf4070020079800b7
:10381c007a003700c182200010002000e8f4070075
:10382c002007980075003700c1822000200020007e
:10383c00e3f407002007980070003700c1822000d5
:10384c0030002000def40700200798006b003700e2
:10385c00c182200040002000d9f407002007980006
:10386c0066003700c182200050002000d4f407000d
:10387c002007980061003700c18220006000200002
:10388c00cff40700200798005c003700c1822000ad
:10389c0070002000caf4070020079800570037007a
:1038ac00c182200080002000c5f40700200798008a
:1038bc0052003700c182200090002000c0f40700a5
:1038cc00200798004d003700c1822000a000200086
:1038dc00bbf407002007980048003700c182200085
:1038ec00b0002000b6f40700200798004300370012
:1038fc00c18220000000eb005bf507002007980058
:10390c003e003700c18220001000200056f5070051
:10391c002007980039003700c182200020002000c9
:10392c0051f507002007980034003700c1822000b1
:10393c00300020004cf50700200798002f003700be
:10394c00c18220004000200047f5070020079800a6
:10395c002a003700c18220005000200042f50700e9
:10396c002007980025003700c1822000600020004d
:10397c003df507002007980020003700c182200089
:10398c007000200038f50700200798001b00370056
:10399c00c082200025f6070020079800170037008a
:1039ac00c082200082f60700200798001300370021
:1039bc00c0822000cdf50700200798000f003700cb
:1039cc00c0822000f1f50700200798000b0037009b
:1039dc00c1822000100020003cf607002007980050
:1039ec0006003700c18220002000200037f60700b7
:1039fc002007980001003700000000002e00900006
:103a0c00e20f500009003200e30f500012003200a8
:103a1c00e10f500012003a00ae4890002147980088
:103a2c0010002000300798000e0037002e40900048
:103a3c000040e800204798000080eb00000f780061
:103a4c00010037001e0fe9001e0078000000e000a6
:103a5c00fcff3a00030037000000000001003700b3
:103a6c0000000000ae4090002e48900080cf500027
:103a7c0041ff39003e0090000080fa000000060073
:103a8c000200fa0010002000000f78000e00070062
:103a9c00e10f50000200320020002000000f7800df
:103aac0017000700e10f5000020032002000200038
:103abc00000f7800809e2000affd07001e007800ec
:103acc000080fa00000006000000fa0041c0b300bc
:103adc00700120001cff0700e10f500005003200b0
:103aec0021002000809e20008ffd07002000200078
:103afc0001003700100020000080fa0000000600d2
:103b0c000200fa0010002000000f780041c0b30042
:103b1c00600120000cff0700e10f500012003a007a
:103b2c00809e200088fd0700e50f50000c003a0035
:103b3c00809e20008afd070011fd2000810f50009f
:103b4c0007003e0041c0b30010002000fefe07003d
:103b5c00e10f50000200320020002000000f78001e
:103b6c001000200001003700200020000080fa0027
:103b7c00000006000200fa0010002000000f780080
:103b8c00809e200062fd0700e20f50004c003200c6
:103b9c0041c0b300c0002000ebfe0700e10f500055
:103bac004900320041c0b3000000eb00e6fe070004
:103bbc00e10f50000200320020002000000f7800be
:103bcc0041c0b30010002000dffe0700e10f5000e1
:103bdc000200320020002000000f780041c0b3002a
:103bec0030002000d8fe0700e10f50000200320028
:103bfc0020002000000f780041c0b30040002000de
:103c0c00d1fe0700e10f500002003200200020001e
:103c1c00000f780041c0b30050002000cafe07001e
:103c2c00e10f50000200320020002000000f78004d
:103c3c0041c0b30070002000c3fe0700e10f50002c
:103c4c000200320020002000000f780041c0b300b9
:103c5c0090002000bcfe0700e10f50000200320073
:103c6c0020002000000f780041c0b300a00020000d
:103c7c00b5fe0700e10f50000200320020002000ca
:103c8c00000f780041c0b30040012000aefe0700d9
:103c9c00e10f50000200320020002000000f7800dd
:103cac0041c0b30050012000a7fe0700e10f5000f7
:103cbc000500320020002000000f780002003700c1
:103ccc0020002000000f78001e0078000080fa0011
:103cdc00000006000000fa00809e2000c5fd0700d1
:103cec00e30f500008003a00c1fc070078fe070003
:103cfc008000eb00809e2000c4fd0700c102200064
:103d0c00c0a12000befc07000080fa0000000600e5
:103d1c000000fa009980a9009960a9008000200099
:103d2c00c01c88009a23ef0070062000001d88003c
:103d3c00a223ef0040aa2000c040880040aa200027
:103d4c00b040880060aa2000a040880060aa200033
:103d5c00904088001a68ef00c0ed210007000700b2
:103d6c00a0ef2100140007009960a80099e3a800b7
:103d7c009b43a8000080fa00000006000200fa0035
:103d8c00000f78001e0078000000e00003003a00ed
:103d9c00c0ed2100e0408800020037009e00780052
:103dac00e14088000080fa00000006000000fa00e4
:103dbc000080fa00000006000200fa00000f7800f4
:103dcc001e0078000000e00003003a00a0ef210084
:103ddc00f0408800020037009e007800f140880017
:103dec000080fa00000006000000fa000080fa00d3
:103dfc00000006000200fa00f01c8000004f780062
:103e0c001e4078000080fa00000006000200fa0054
:103e1c00004f78001e80fb00e01c88009980a800f1
:103e2c000080fa00000006000000fa00a1408000ab
:103e3c00904080000080680000f0a7000000ea00bd
:103e4c000000ea004f00de00004078000080fa001d
:103e5c00000006000000fa0010c0b3000080fa0059
:103e6c00000006000000fa00d11c800000102000a9
:103e7c000080600000f0a7000000ea000000ea00eb
:103e8c004f00de00004078000080fa0000000600c1
:103e9c000400fa009140800011079800a0408000b7
:103eac009e009000808f5000060031009e00900014
:103ebc00a0408000008050000080e800000f7800d7
:103ecc00040037009e009000a0408000008050004d
:103edc00000f7800f00f20009e007800808f5000bb
:103eec000200360000c0eb00020037001e00780014
:103efc00004078000080fa00000006000400fa0080
:103f0c00c140800011079800b14080001e00900055
:103f1c00808f5000060031009e009000b040800061
:103f2c00008050000000e900000f78000500370009
:103f3c009e009000b0408000008050000000e8001f
:103f4c00000f7800f00f20009e007800808f50004a
:103f5c000200360000c0eb00020037001e007800a3
:103f6c00004078000080fa00000006000800fa000b
:103f7c002007980031079800c5ff07000080fb0060
:103f8c00000f78003e0090009e0f500002003100a0
:103f9c00be009000010f78000000eb0010079800a5
:103fac000900370093ff0700ae00900080487800ae
:103fbc002e0090000000e800200798001e009000e2
:103fcc000000e800100798001e0090009e0f5000a3
:103fdc00f4ff39001e0078000080fa000000060093
:103fec000800fa002007980031079800c3ff07006b
:103ffc000080fb00000f78003e0090009e0f5000e8
:10400c0002003100be009000010f78000000eb00b0
:10401c0010079800090037002e009000104078001f
:10402c00ae0090008100e8002107980077ff0700a0
:10403c001e0090000000e800100798001e00900081
:10404c009e0f5000f4ff39001e0078000080fa002b
:10405c00000006000400fa000000eb00000f7800de
:10406c008bff070020479800a4ff070030479800fb
:10407c002e4090000080fb000000e00003003200a6
:10408c00e20f500003003200040037001e20a00095
:10409c00040037001e00a000020037001e10a00014
:1040ac00000000003e4090000080fb000000e0009b
:1040bc0003003200e20f500003003200040037000e
:1040cc001e30a000020037001e40a00000000000bf
:1040dc001e0078000080fa00000006000400fa00c0
:1040ec0010079800a14080001e009000008f400037
:1040fc00010037001e8fe90080aa20009e00780086
:10410c00808f5000fbff3e001e00780010407800ae
:10411c000080fa00000006000000fa005cff0700b7
:10412c000080fb000000e9004f00de00004078003a
:10413c000080fa00000006000000fa006fff070084
:10414c000080fb000000e9004f00de00004078001a
:10415c000080fa00000006000000fa00d01c80006d
:10416c000080fa00000006000000fa0063ff070060
:10417c000004e00010003200c1408000b04080001c
:10418c00808f500006003600c04080008000780010
:10419c00b0408000008050000000e90007003700ac
:1041ac00c040800080007800b0408000008050004b
:1041bc000000e800010037000000eb000080fa006e
:1041cc00000006000000fa0031ff07000004e000c8
:1041dc0010003200a140800090408000808f500081
:1041ec0006003600a04080008000780090408000df
:1041fc00008050000000e90007003700a04080005c
:10420c008000780090408000008050000000e800a2
:10421c00010037000000eb000080fa0000000600ef
:10422c000000fa0099e3a8009b43a8000080fa0064
:10423c00000006000000fa0099e3a9009b43a900c6
:10424c000080fa00000006000000fa009e23ef0038
:10425c008960a9009960a8000080fa00000006009f
:10426c000000fa009960a9000080fa000000060026
:10427c000000fa0098e3a9000080fa000000060094
:10428c000000fa0098e3a8000080fa000000060085
:10429c000000fa00c01c80004700de006140600096
:1042ac000080fa00000006000200fa001000200056
:1042bc00000f7800ebfa070091fb07005bfc07008e
:1042cc00effd0700a1002000c0a120004cfb07005f
:1042dc008000eb00809e20004cfc0700809e20009c
:1042ec0044fc0700e20f50000a013200e30f5000bb
:1042fc0014013200e10f500016003200c0a1200062
:10430c004efb07000000e00011003a00eefd070034
:10431c00e10f50000400320021002000809e20009c
:10432c003afc07000a00370012fe0700f4fd0700f4
:10433c00809e200090fb0700411f2000c0a12000a0
:10434c0050fb070011002000809e20002ffc07006e
:10435c00fd003700809e200018fc07008000eb0059
:10436c00b200200003002000820f5000838f580001
:10437c00e6003e00006001000b0037001b00370018
:10438c002b003700dd0037003a00370057003700ac
:10439c00740037008400370094003700a400370005
:1043ac00b4003700c4003700c3a120000001eb00ab
:1043bc00410120000000eb004cfc0700c0a12000d4
:1043cc001efb07000000e00004003a00acfd0700f3
:1043dc0041012000c0a1200009fb0700411f200063
:1043ec00c0a1200027fb0700c9003700c3a1200093
:1043fc000001eb0041012000200020003bfc0700e5
:10440c00c0a120000dfb07000000e00004003a00f2
:10441c009bfd070041012000c0a12000f8fa070015
:10442c00411f2000c0a1200016fb0700b800370078
:10443c00c3a120000001eb0041012000100020006e
:10444c002afc0700c0a12000fcfa07000000e000d5
:10445c0004003a008afd070041012000c0a12000a1
:10446c00e7fa0700411f2000c0a1200005fb070050
:10447c00a7003700c3a1200042012000210020002a
:10448c003000200019fc0700c0a12000ebfa070047
:10449c000000e00004003a0079fd07004101200013
:1044ac00c0a12000d6fa0700c0a1200004fb070021
:1044bc000000e0000c003a0041c0b3009001200065
:1044cc00a1fc0700e10f5000050032002000200085
:1044dc00000f7800411f2000c0a12000e9fa07005e
:1044ec00c0a12000cefa070089003700c3a120002c
:1044fc00a20020002100200020002000fbfb070070
:10450c00c0a12000cdfa07000000e00004003a0032
:10451c005bfd070041012000c0a12000b8fa070094
:10452c00c0a12000e6fa07000000e0000c003a00f1
:10453c0041c0b3009001200083fc0700e10f500044
:10454c000500320020002000000f7800411f2000e1
:10455c00c0a12000cbfa0700c0a12000b0fa0700d0
:10456c006b003700c3a12000420120002100200075
:10457c0020002000ddfb0700c0a12000affa0700df
:10458c000000e00004003a003dfd0700410120005e
:10459c00c0a120009afa0700411f2000c0a12000f2
:1045ac00b8fa07005a003700c3a1200042012000ce
:1045bc002100200010002000ccfb0700c0a120002f
:1045cc009efa07000000e00004003a002cfd0700f2
:1045dc0041012000c0a1200089fa0700411f2000e2
:1045ec00c0a12000a7fa070049003700c3a1200092
:1045fc000001eb004101200030002000bbfb070054
:10460c00c0a120008dfa07000000e00004003a0071
:10461c001bfd070041012000c0a1200078fa070013
:10462c00411f2000c0a1200096fa07003800370077
:10463c00c3a12000320020004101200020002000f6
:10464c00aafb0700c0a120007cfa07000000e000d4
:10465c0004003a000afd070041012000c0a120001f
:10466c0067fa0700411f2000c0a1200085fa07004f
:10467c0027003700c3a120000001eb0041012000fe
:10468c002000200099fb0700c0a120006bfa070056
:10469c000000e00004003a00f9fc07004101200092
:1046ac00c0a1200056fa0700411f2000c0a1200025
:1046bc0074fa070016003700c3a120000001eb00bc
:1046cc00410120001000200088fb0700c0a1200041
:1046dc005afa07000000e00004003a00e8fc07006a
:1046ec0041012000c0a1200045fa0700411f200015
:1046fc00c0a1200063fa070005003700210020004c
:10470c00809e200041fb07000100370000000000e4
:10471c000d003700c3a120000001eb004101200077
:10472c000000eb0071fb07002dfa0700ecfb070003
:10473c0031002000809e200034fb07000040fe006a
:10474c000100370000000000e4fe37000200fa0010
:10475c00004f78009021ef009e80fb009086210096
:10476c000088b90000007800900c88000002280036
:10477c00a00c8800404180000000e00002003a00dc
:10478c00c0402200260007008860a9009860a8009d
:10479c0080aa20008040eb00014878000080fa00dd
:1047ac00000006000200fa00000f78009e0078005e
:1047bc00910c880080aa20008040eb000148780012
:1047cc000080fa00000006000000fa00900c800047
:1047dc000080fa00000006000200fa00000f7800ca
:1047ec009e007800810c880080aa20008040eb009d
:1047fc00014878000080fa00000006000000fa0072
:10480c00800c80000080fa00000006000000fa0016
:10481c00abf90700110007000080fa000000060049
:10482c000200fa00000f78009860a9009e00780042
:10483c00414188000080fa00000006000000fa00e8
:10484c0080aa20008040eb00014878009860a80006
:10485c0095e1a8000080fa00000006000000fa00b4
:10486c0095e1a9008860a9009860a9000080fa0071
:10487c00000006000200fa0080aa2000104f780009
:10488c001e4078000004e0000300320080aa2000e3
:10489c008040eb00014878001e4078000080fa0050
:1048ac00000006000000fa0090aa200010407800da
:1048bc000080fb000080fa00000006000000fa00f7
:1048cc0090aa20008040eb00014878000080fa009c
:1048dc00000006000000fa009621ef00701a260076
:1048ec00e00c880000012800000d88005041800079
:1048fc000000e00002003a00804c22002a00070071
:10490c0088e0a90098e0a800a0aa20008040eb0055
:10491c00014878000080fa00000006000200fa004e
:10492c00000f78009e007800e10c8800a0aa2000ff
:10493c008040eb00014878000080fa00000006007f
:10494c000000fa00e00c80000080fa000000060075
:10495c000200fa00000f78009e007800b10c88006d
:10496c00a0aa20008040eb00014878000080fa00eb
:10497c00000006000000fa00b00c80000080fa0075
:10498c00000006000000fa00c0a120007ef907001c
:10499c00e0a120007cf9070000a220007af90700b2
:1049ac000080fa00000006000200fa00000f7800f8
:1049bc0098e0a9009e0078005141880098e0a8007a
:1049cc000080fa00000006000000fa00a0aa2000f7
:1049dc008040eb000148780098e0a800a1e1a80015
:1049ec000080fa00000006000000fa00a1e1a90016
:1049fc0098e0a9000080fa00000006000200fa000e
:104a0c00a0aa2000104f78001e4078000004e0009f
:104a1c0003003200a0aa20008040eb00014878007f
:104a2c001e4078000080fa00000006000000fa002a
:104a3c00b0aa2000104078000080fb000080fa0033
:104a4c00000006000000fa00b0aa20008040eb0035
:0c4a5c00014878000080fa00000006000d
:020000040000fa
:104a68002c080000f6010000800000002208000069
:104a78000400000080000000840a000020000000fc
:104a880080000000260800000200000082000000ec
:104a9800ffff0000a40a00000400000080000000de
:104aa800120800001000000080000000a80a0000a2
:104ab800020000008000000028080000020000003a
:104ac80080000000aa0a0000020000008000000028
:104ad8002a0800000200000080000000220a0000ee
:104ae8006200000082000000fa83ff008301840056
:104af80004840800840e840014841900841e840031
:104b08002e843d00845e840069847400848b840054
:104b18009284990084a68400ba84ce0084d8840044
:104b2800f084f50084fb840003850900851985005d
:104b38001b851e00852085002c853500853e850057
:104b4800468555008568850078857b0085000000ce
:104b58008185870085998500a285aa0085b585008d
:104b6800c185ca00855585006885000000080000d9
:0c4b78001200000080000000000000009f
:020000040000fa
:104b84000000fa006626ef007a26ef00700120008c
:104b940010338800b0ef2100b03388007426ef0092
:104ba40000082000403488007226ef0040002e00e8
:104bb400303488006826ef007c26ef007000200067
:104bc4005033880040202100f03388000108800021
:104bd400f00b2000008160006004200071052000bb
:104be40003102000804978008149780082497800c8
:104bf400a13d800000fc2f00008060000000a000a8
:104c0400a03d8800b13e800000f82f0000806000c5
:104c14003000b300b03e8800000880000001780036
:104c24000260a00060042000710520000310200031
:104c34008049780081497800824978000080fa0030
:104c4400000006000000fa0000002300100888009d
:104c54000621ef006821ef006a21ef000821ef0030
:104c640000702000500888000c21ef000e21ef0096
:104c74007821ef007a21ef007c21ef007e21ef0004
:104c84008021ef008221ef008421ef008621ef00d4
:104c94000001eb0080072000a10920001310200070
:104ca4008049780081497800824978000001eb004e
:104cb4006004200071052000031020008049780062
:104cc40081497800824978000080fa0000000600db
:104cd4000000fa004105800080ff2f000080600082
:104ce4000000a0004005880051058000f0ff280066
:104cf4000080600000c0a0005005880041058000cd
:104d0400f0ff28000080600000c0a000400588007b
:104d140041068000f0f82f00008060000040a000f1
:104d2400400688007105800080ff2f00008060002d
:104d34000000a0007005880061058000f0ff2800d5
:104d44000080600000c0a000600588000080fa00b8
:104d5400000006000200fa00000f78009e007800b0
:104d640031418800ffff37000000fa0040a820000e
:104d740080077800c0a92000000188000080fa00a4
:104d8400000006000000fa007dff0700adff0700e9
:104d9400cfff0700e0fb0700d0fe070010c0b30000
:104da4006cfe0700060007000080fa000000060001
:104db4000000fa00c9fb07000080fa0000000600aa
:104dc4000000fa008800a9008200a9009800a80049
:084dd4000080fa000000060057
:020000040000fa
:020000040005f5
:045e0000ffff0000a0
:020000040000fa
:020000040005f5
:045e2000ffffff0081
:020000040000fa
:020000040005f5
:045e300078ffff00f8
:020000040000fa
:020000040005f5
:045e380073ffff00f5
:020000040000fa
:020000040005f5
:045e40009fffff00c1
:020000040000fa
:020000040005f5
:045e4800ffffff0059
:020000040000fa
:020000040005f5
:045e5000deffff0072
:020000040000fa
:020000040005f5
:045e5800ffffff0049
:00000001FF
